{
    "contractName": "Cottage",
    "abi": [
        {
            "inputs": [],
            "stateMutability": "nonpayable",
            "type": "constructor"
        },
        {
            "anonymous": false,
            "inputs": [
                {
                    "indexed": true,
                    "internalType": "address",
                    "name": "owner",
                    "type": "address"
                },
                {
                    "indexed": true,
                    "internalType": "address",
                    "name": "approved",
                    "type": "address"
                },
                {
                    "indexed": true,
                    "internalType": "uint256",
                    "name": "tokenId",
                    "type": "uint256"
                }
            ],
            "name": "Approval",
            "type": "event"
        },
        {
            "anonymous": false,
            "inputs": [
                {
                    "indexed": true,
                    "internalType": "address",
                    "name": "owner",
                    "type": "address"
                },
                {
                    "indexed": true,
                    "internalType": "address",
                    "name": "operator",
                    "type": "address"
                },
                {
                    "indexed": false,
                    "internalType": "bool",
                    "name": "approved",
                    "type": "bool"
                }
            ],
            "name": "ApprovalForAll",
            "type": "event"
        },
        {
            "anonymous": false,
            "inputs": [
                {
                    "indexed": true,
                    "internalType": "address",
                    "name": "from",
                    "type": "address"
                },
                {
                    "indexed": true,
                    "internalType": "address",
                    "name": "to",
                    "type": "address"
                },
                {
                    "indexed": true,
                    "internalType": "uint256",
                    "name": "tokenId",
                    "type": "uint256"
                }
            ],
            "name": "Transfer",
            "type": "event"
        },
        {
            "inputs": [
                {
                    "internalType": "address",
                    "name": "to",
                    "type": "address"
                },
                {
                    "internalType": "uint256",
                    "name": "tokenId",
                    "type": "uint256"
                }
            ],
            "name": "approve",
            "outputs": [],
            "stateMutability": "nonpayable",
            "type": "function"
        },
        {
            "inputs": [
                {
                    "internalType": "address",
                    "name": "owner",
                    "type": "address"
                }
            ],
            "name": "balanceOf",
            "outputs": [
                {
                    "internalType": "uint256",
                    "name": "",
                    "type": "uint256"
                }
            ],
            "stateMutability": "view",
            "type": "function"
        },
        {
            "inputs": [],
            "name": "baseURI",
            "outputs": [
                {
                    "internalType": "string",
                    "name": "",
                    "type": "string"
                }
            ],
            "stateMutability": "view",
            "type": "function"
        },
        {
            "inputs": [
                {
                    "internalType": "uint256",
                    "name": "",
                    "type": "uint256"
                }
            ],
            "name": "cottages",
            "outputs": [
                {
                    "internalType": "uint256",
                    "name": "cottageId",
                    "type": "uint256"
                },
                {
                    "internalType": "string",
                    "name": "cottageName",
                    "type": "string"
                },
                {
                    "internalType": "string",
                    "name": "cottageLocation",
                    "type": "string"
                },
                {
                    "internalType": "address",
                    "name": "cottageOwner",
                    "type": "address"
                }
            ],
            "stateMutability": "view",
            "type": "function"
        },
        {
            "inputs": [
                {
                    "internalType": "uint256",
                    "name": "tokenId",
                    "type": "uint256"
                }
            ],
            "name": "getApproved",
            "outputs": [
                {
                    "internalType": "address",
                    "name": "",
                    "type": "address"
                }
            ],
            "stateMutability": "view",
            "type": "function"
        },
        {
            "inputs": [
                {
                    "internalType": "address",
                    "name": "owner",
                    "type": "address"
                },
                {
                    "internalType": "address",
                    "name": "operator",
                    "type": "address"
                }
            ],
            "name": "isApprovedForAll",
            "outputs": [
                {
                    "internalType": "bool",
                    "name": "",
                    "type": "bool"
                }
            ],
            "stateMutability": "view",
            "type": "function"
        },
        {
            "inputs": [],
            "name": "name",
            "outputs": [
                {
                    "internalType": "string",
                    "name": "",
                    "type": "string"
                }
            ],
            "stateMutability": "view",
            "type": "function"
        },
        {
            "inputs": [
                {
                    "internalType": "uint256",
                    "name": "tokenId",
                    "type": "uint256"
                }
            ],
            "name": "ownerOf",
            "outputs": [
                {
                    "internalType": "address",
                    "name": "",
                    "type": "address"
                }
            ],
            "stateMutability": "view",
            "type": "function"
        },
        {
            "inputs": [
                {
                    "internalType": "uint256",
                    "name": "",
                    "type": "uint256"
                }
            ],
            "name": "products",
            "outputs": [
                {
                    "internalType": "uint256",
                    "name": "prodId",
                    "type": "uint256"
                },
                {
                    "internalType": "string",
                    "name": "prodName",
                    "type": "string"
                },
                {
                    "internalType": "uint256",
                    "name": "prodPrice",
                    "type": "uint256"
                },
                {
                    "internalType": "uint256",
                    "name": "quantity",
                    "type": "uint256"
                }
            ],
            "stateMutability": "view",
            "type": "function"
        },
        {
            "inputs": [
                {
                    "internalType": "string",
                    "name": "_name",
                    "type": "string"
                },
                {
                    "internalType": "string",
                    "name": "_location",
                    "type": "string"
                }
            ],
            "name": "registerCottage",
            "outputs": [],
            "stateMutability": "nonpayable",
            "type": "function"
        },
        {
            "inputs": [
                {
                    "internalType": "string",
                    "name": "_prodName",
                    "type": "string"
                },
                {
                    "internalType": "uint256",
                    "name": "_prodPrice",
                    "type": "uint256"
                },
                {
                    "internalType": "uint256",
                    "name": "_quantity",
                    "type": "uint256"
                }
            ],
            "name": "registerProduct",
            "outputs": [],
            "stateMutability": "nonpayable",
            "type": "function"
        },
        {
            "inputs": [
                {
                    "internalType": "uint256",
                    "name": "_cottageId",
                    "type": "uint256"
                }
            ],
            "name": "retrieveCottageDetails",
            "outputs": [
                {
                    "internalType": "uint256",
                    "name": "cottageId",
                    "type": "uint256"
                },
                {
                    "internalType": "string",
                    "name": "cottageName",
                    "type": "string"
                },
                {
                    "internalType": "string",
                    "name": "cottageLocation",
                    "type": "string"
                },
                {
                    "internalType": "address",
                    "name": "cottageFounder",
                    "type": "address"
                }
            ],
            "stateMutability": "view",
            "type": "function"
        },
        {
            "inputs": [
                {
                    "internalType": "address",
                    "name": "from",
                    "type": "address"
                },
                {
                    "internalType": "address",
                    "name": "to",
                    "type": "address"
                },
                {
                    "internalType": "uint256",
                    "name": "tokenId",
                    "type": "uint256"
                }
            ],
            "name": "safeTransferFrom",
            "outputs": [],
            "stateMutability": "nonpayable",
            "type": "function"
        },
        {
            "inputs": [
                {
                    "internalType": "address",
                    "name": "from",
                    "type": "address"
                },
                {
                    "internalType": "address",
                    "name": "to",
                    "type": "address"
                },
                {
                    "internalType": "uint256",
                    "name": "tokenId",
                    "type": "uint256"
                },
                {
                    "internalType": "bytes",
                    "name": "_data",
                    "type": "bytes"
                }
            ],
            "name": "safeTransferFrom",
            "outputs": [],
            "stateMutability": "nonpayable",
            "type": "function"
        },
        {
            "inputs": [
                {
                    "internalType": "uint256",
                    "name": "_prodId",
                    "type": "uint256"
                },
                {
                    "internalType": "uint256",
                    "name": "_quantity",
                    "type": "uint256"
                }
            ],
            "name": "sellProduct",
            "outputs": [
                {
                    "internalType": "uint256",
                    "name": "totalPrice",
                    "type": "uint256"
                }
            ],
            "stateMutability": "nonpayable",
            "type": "function"
        },
        {
            "inputs": [
                {
                    "internalType": "address",
                    "name": "operator",
                    "type": "address"
                },
                {
                    "internalType": "bool",
                    "name": "approved",
                    "type": "bool"
                }
            ],
            "name": "setApprovalForAll",
            "outputs": [],
            "stateMutability": "nonpayable",
            "type": "function"
        },
        {
            "inputs": [
                {
                    "internalType": "uint256",
                    "name": "_tokenId",
                    "type": "uint256"
                }
            ],
            "name": "settlement",
            "outputs": [],
            "stateMutability": "nonpayable",
            "type": "function"
        },
        {
            "inputs": [
                {
                    "internalType": "bytes4",
                    "name": "interfaceId",
                    "type": "bytes4"
                }
            ],
            "name": "supportsInterface",
            "outputs": [
                {
                    "internalType": "bool",
                    "name": "",
                    "type": "bool"
                }
            ],
            "stateMutability": "view",
            "type": "function"
        },
        {
            "inputs": [],
            "name": "symbol",
            "outputs": [
                {
                    "internalType": "string",
                    "name": "",
                    "type": "string"
                }
            ],
            "stateMutability": "view",
            "type": "function"
        },
        {
            "inputs": [
                {
                    "internalType": "uint256",
                    "name": "index",
                    "type": "uint256"
                }
            ],
            "name": "tokenByIndex",
            "outputs": [
                {
                    "internalType": "uint256",
                    "name": "",
                    "type": "uint256"
                }
            ],
            "stateMutability": "view",
            "type": "function"
        },
        {
            "inputs": [
                {
                    "internalType": "address",
                    "name": "owner",
                    "type": "address"
                },
                {
                    "internalType": "uint256",
                    "name": "index",
                    "type": "uint256"
                }
            ],
            "name": "tokenOfOwnerByIndex",
            "outputs": [
                {
                    "internalType": "uint256",
                    "name": "",
                    "type": "uint256"
                }
            ],
            "stateMutability": "view",
            "type": "function"
        },
        {
            "inputs": [
                {
                    "internalType": "uint256",
                    "name": "tokenId",
                    "type": "uint256"
                }
            ],
            "name": "tokenURI",
            "outputs": [
                {
                    "internalType": "string",
                    "name": "",
                    "type": "string"
                }
            ],
            "stateMutability": "view",
            "type": "function"
        },
        {
            "inputs": [],
            "name": "totalSupply",
            "outputs": [
                {
                    "internalType": "uint256",
                    "name": "",
                    "type": "uint256"
                }
            ],
            "stateMutability": "view",
            "type": "function"
        },
        {
            "inputs": [
                {
                    "internalType": "address",
                    "name": "from",
                    "type": "address"
                },
                {
                    "internalType": "address",
                    "name": "to",
                    "type": "address"
                },
                {
                    "internalType": "uint256",
                    "name": "tokenId",
                    "type": "uint256"
                }
            ],
            "name": "transferFrom",
            "outputs": [],
            "stateMutability": "nonpayable",
            "type": "function"
        }
    ],
    "bytecode": "60806040526000600a556000600c553480156200001b57600080fd5b50604080518082018252601081526f2b37b63ab73a32b2b91021b7bab837b760811b60208083019190915282518084019093526002835261534360f01b9083015290620000786301ffc9a760e01b6001600160e01b03620000fd16565b81516200008d90600690602085019062000182565b508051620000a390600790602084019062000182565b50620000bf6380ac58cd60e01b6001600160e01b03620000fd16565b620000da635b5e139f60e01b6001600160e01b03620000fd16565b620000f563780e9d6360e01b6001600160e01b03620000fd16565b505062000227565b6001600160e01b031980821614156200015d576040805162461bcd60e51b815260206004820152601c60248201527f4552433136353a20696e76616c696420696e7465726661636520696400000000604482015290519081900360640190fd5b6001600160e01b0319166000908152602081905260409020805460ff19166001179055565b828054600181600116156101000203166002900490600052602060002090601f016020900481019282601f10620001c557805160ff1916838001178555620001f5565b82800160010185558215620001f5579182015b82811115620001f5578251825591602001919060010190620001d8565b506200020392915062000207565b5090565b6200022491905b808211156200020357600081556001016200020e565b90565b61289380620002376000396000f3fe608060405234801561001057600080fd5b50600436106101585760003560e01c806360ad2391116100c3578063a22cb4651161007c578063a22cb465146106cc578063b88d4fde146106fa578063c87b56dd146107be578063e763225f146107db578063e985e9c5146107f8578063f20f8e411461082657610158565b806360ad2391146105b25780636352211e146105cf5780636c0360eb146105ec57806370a08231146105f45780637acc0b201461061a57806395d89b41146106c457610158565b806323b872dd1161011557806323b872dd146102b9578063244a8d23146102ef5780632f745c591461040a57806342842e0e1461043657806346862afe1461046c5780634f6ccce71461059557610158565b806301ffc9a71461015d57806306fdde0314610198578063081812fc14610215578063095ea7b31461024e57806318160ddd1461027c57806318b30a4814610296575b600080fd5b6101846004803603602081101561017357600080fd5b50356001600160e01b0319166108cf565b604080519115158252519081900360200190f35b6101a06108f2565b6040805160208082528351818301528351919283929083019185019080838360005b838110156101da5781810151838201526020016101c2565b50505050905090810190601f1680156102075780820380516001836020036101000a031916815260200191505b509250505060405180910390f35b6102326004803603602081101561022b57600080fd5b5035610989565b604080516001600160a01b039092168252519081900360200190f35b61027a6004803603604081101561026457600080fd5b506001600160a01b0381351690602001356109eb565b005b610284610ac6565b60408051918252519081900360200190f35b610284600480360360408110156102ac57600080fd5b5080359060200135610ad7565b61027a600480360360608110156102cf57600080fd5b506001600160a01b03813581169160208101359091169060400135610b42565b61030c6004803603602081101561030557600080fd5b5035610b99565b604051808581526020018060200180602001846001600160a01b03166001600160a01b03168152602001838103835286818151815260200191508051906020019080838360005b8381101561036b578181015183820152602001610353565b50505050905090810190601f1680156103985780820380516001836020036101000a031916815260200191505b50838103825285518152855160209182019187019080838360005b838110156103cb5781810151838201526020016103b3565b50505050905090810190601f1680156103f85780820380516001836020036101000a031916815260200191505b50965050505050505060405180910390f35b6102846004803603604081101561042057600080fd5b506001600160a01b038135169060200135610d3a565b61027a6004803603606081101561044c57600080fd5b506001600160a01b03813581169160208101359091169060400135610d69565b61027a6004803603604081101561048257600080fd5b810190602081018135600160201b81111561049c57600080fd5b8201836020820111156104ae57600080fd5b803590602001918460018302840111600160201b831117156104cf57600080fd5b91908080601f0160208091040260200160405190810160405280939291908181526020018383808284376000920191909152509295949360208101935035915050600160201b81111561052157600080fd5b82018360208201111561053357600080fd5b803590602001918460018302840111600160201b8311171561055457600080fd5b91908080601f016020809104026020016040519081016040528093929190818152602001838380828437600092019190915250929550610d84945050505050565b610284600480360360208110156105ab57600080fd5b5035610ea5565b61027a600480360360208110156105c857600080fd5b5035610ec1565b610232600480360360208110156105e557600080fd5b5035610f27565b6101a0610f55565b6102846004803603602081101561060a57600080fd5b50356001600160a01b0316610fb6565b6106376004803603602081101561063057600080fd5b503561101e565b6040518085815260200180602001848152602001838152602001828103825285818151815260200191508051906020019080838360005b8381101561068657818101518382015260200161066e565b50505050905090810190601f1680156106b35780820380516001836020036101000a031916815260200191505b509550505050505060405180910390f35b6101a06110d1565b61027a600480360360408110156106e257600080fd5b506001600160a01b0381351690602001351515611132565b61027a6004803603608081101561071057600080fd5b6001600160a01b03823581169260208101359091169160408201359190810190608081016060820135600160201b81111561074a57600080fd5b82018360208201111561075c57600080fd5b803590602001918460018302840111600160201b8311171561077d57600080fd5b91908080601f016020809104026020016040519081016040528093929190818152602001838380828437600092019190915250929550611237945050505050565b6101a0600480360360208110156107d457600080fd5b5035611295565b61030c600480360360208110156107f157600080fd5b503561153c565b6101846004803603604081101561080e57600080fd5b506001600160a01b0381358116916020013516611684565b61027a6004803603606081101561083c57600080fd5b810190602081018135600160201b81111561085657600080fd5b82018360208201111561086857600080fd5b803590602001918460018302840111600160201b8311171561088957600080fd5b91908080601f01602080910402602001604051908101604052809392919081815260200183838082843760009201919091525092955050823593505050602001356116b2565b6001600160e01b0319811660009081526020819052604090205460ff165b919050565b60068054604080516020601f600260001961010060018816150201909516949094049384018190048102820181019092528281526060939092909183018282801561097e5780601f106109535761010080835404028352916020019161097e565b820191906000526020600020905b81548152906001019060200180831161096157829003601f168201915b505050505090505b90565b600061099482611810565b6109cf5760405162461bcd60e51b815260040180806020018281038252602c815260200180612763602c913960400191505060405180910390fd5b506000908152600460205260409020546001600160a01b031690565b60006109f682610f27565b9050806001600160a01b0316836001600160a01b03161415610a495760405162461bcd60e51b81526004018080602001828103825260218152602001806127e76021913960400191505060405180910390fd5b806001600160a01b0316610a5b611823565b6001600160a01b03161480610a7c5750610a7c81610a77611823565b611684565b610ab75760405162461bcd60e51b81526004018080602001828103825260388152602001806126b66038913960400191505060405180910390fd5b610ac18383611827565b505050565b6000610ad26002611895565b905090565b6000828152600d602052604081206003810154831115610b285760405162461bcd60e51b81526004018080602001828103825260278152602001806125bf6027913960400191505060405180910390fd5b600381018054849003905560020154820290505b92915050565b610b53610b4d611823565b826118a0565b610b8e5760405162461bcd60e51b815260040180806020018281038252603181526020018061282d6031913960400191505060405180910390fd5b610ac1838383611944565b60006060806000610ba8612493565b600b600087815260200190815260200160002060405180608001604052908160008201548152602001600182018054600181600116156101000203166002900480601f016020809104026020016040519081016040528092919081815260200182805460018160011615610100020316600290048015610c695780601f10610c3e57610100808354040283529160200191610c69565b820191906000526020600020905b815481529060010190602001808311610c4c57829003601f168201915b5050509183525050600282810180546040805160206001841615610100026000190190931694909404601f81018390048302850183019091528084529381019390830182828015610cfb5780601f10610cd057610100808354040283529160200191610cfb565b820191906000526020600020905b815481529060010190602001808311610cde57829003601f168201915b5050509183525050600391909101546001600160a01b031660209182015281519082015160408301516060909301519199909850919650945092505050565b6001600160a01b0382166000908152600160205260408120610d62908363ffffffff611aa216565b9392505050565b610ac183838360405180602001604052806000815250611237565b6000825111610dc45760405162461bcd60e51b81526004018080602001828103825260258152602001806128086025913960400191505060405180910390fd5b6000815111610e045760405162461bcd60e51b81526004018080602001828103825260298152602001806126616029913960400191505060405180910390fd5b600a80546001908101918290556040805160808101825283815260208082018781528284018790523360608401526000958652600b825292909420815181559151805191949293610e5b93908501929101906124c4565b5060408201518051610e779160028401916020909101906124c4565b5060609190910151600390910180546001600160a01b0319166001600160a01b039092169190911790555050565b600080610eb960028463ffffffff611aae16565b509392505050565b610eca81611810565b610f1b576040805162461bcd60e51b815260206004820152601860248201527f546f6b656e20496420646f6573206e6f74206578697374730000000000000000604482015290519081900360640190fd5b610f2481611aca565b50565b6000610b3c82604051806060016040528060298152602001612718602991396002919063ffffffff611ba316565b60098054604080516020601f600260001961010060018816150201909516949094049384018190048102820181019092528281526060939092909183018282801561097e5780601f106109535761010080835404028352916020019161097e565b60006001600160a01b038216610ffd5760405162461bcd60e51b815260040180806020018281038252602a8152602001806126ee602a913960400191505060405180910390fd5b6001600160a01b0382166000908152600160205260409020610b3c90611895565b600d602090815260009182526040918290208054600180830180548651600293821615610100026000190190911692909204601f8101869004860283018601909652858252919492939092908301828280156110bb5780601f10611090576101008083540402835291602001916110bb565b820191906000526020600020905b81548152906001019060200180831161109e57829003601f168201915b5050505050908060020154908060030154905084565b60078054604080516020601f600260001961010060018816150201909516949094049384018190048102820181019092528281526060939092909183018282801561097e5780601f106109535761010080835404028352916020019161097e565b61113a611823565b6001600160a01b0316826001600160a01b031614156111a0576040805162461bcd60e51b815260206004820152601960248201527f4552433732313a20617070726f766520746f2063616c6c657200000000000000604482015290519081900360640190fd5b80600560006111ad611823565b6001600160a01b03908116825260208083019390935260409182016000908120918716808252919093529120805460ff1916921515929092179091556111f1611823565b60408051841515815290516001600160a01b0392909216917f17307eab39ab6107e8899845ad3d59bd9653f200f220920489ca2b5937696c319181900360200190a35050565b611248611242611823565b836118a0565b6112835760405162461bcd60e51b815260040180806020018281038252603181526020018061282d6031913960400191505060405180910390fd5b61128f84848484611bb0565b50505050565b60606112a082611810565b6112db5760405162461bcd60e51b815260040180806020018281038252602f8152602001806127b8602f913960400191505060405180910390fd5b60008281526008602090815260409182902080548351601f60026000196101006001861615020190931692909204918201849004840281018401909452808452606093928301828280156113705780601f1061134557610100808354040283529160200191611370565b820191906000526020600020905b81548152906001019060200180831161135357829003601f168201915b5050600954939450505050600260001961010060018416150201909116046113995790506108ed565b80511561146a5760098160405160200180838054600181600116156101000203166002900480156114015780601f106113df576101008083540402835291820191611401565b820191906000526020600020905b8154815290600101906020018083116113ed575b5050825160208401908083835b6020831061142d5780518252601f19909201916020918201910161140e565b6001836020036101000a038019825116818451168082178552505050505050905001925050506040516020818303038152906040529150506108ed565b600961147584611c02565b60405160200180838054600181600116156101000203166002900480156114d35780601f106114b15761010080835404028352918201916114d3565b820191906000526020600020905b8154815290600101906020018083116114bf575b5050825160208401908083835b602083106114ff5780518252601f1990920191602091820191016114e0565b6001836020036101000a03801982511681845116808217855250505050505090500192505050604051602081830303815290604052915050919050565b600b602090815260009182526040918290208054600180830180548651600293821615610100026000190190911692909204601f8101869004860283018601909652858252919492939092908301828280156115d95780601f106115ae576101008083540402835291602001916115d9565b820191906000526020600020905b8154815290600101906020018083116115bc57829003601f168201915b50505060028085018054604080516020601f600019610100600187161502019094169590950492830185900485028101850190915281815295969594509092509083018282801561166b5780601f106116405761010080835404028352916020019161166b565b820191906000526020600020905b81548152906001019060200180831161164e57829003601f168201915b505050600390930154919250506001600160a01b031684565b6001600160a01b03918216600090815260056020908152604080832093909416825291909152205460ff1690565b60008351116116f25760405162461bcd60e51b81526004018080602001828103825260258152602001806126186025913960400191505060405180910390fd5b60008211611747576040805162461bcd60e51b815260206004820152601860248201527f50726f6475637420507269636520696e76616c69642e2e2e0000000000000000604482015290519081900360640190fd5b6000811161179c576040805162461bcd60e51b815260206004820152601b60248201527f50726f64756374207175616e7469747920696e76616c69642e2e2e0000000000604482015290519081900360640190fd5b600c8054600190810191829055604080516080810182528381526020808201888152828401889052606083018790526000958652600d8252929094208151815591518051919492936117f493908501929101906124c4565b5060408201516002820155606090910151600390910155505050565b6000610b3c60028363ffffffff611cdd16565b3390565b600081815260046020526040902080546001600160a01b0319166001600160a01b038416908117909155819061185c82610f27565b6001600160a01b03167f8c5be1e5ebec7d5bd14f71427d1e84f3dd0314c0f7b2291e5b200ac8c7c3b92560405160405180910390a45050565b6000610b3c82611ce9565b60006118ab82611810565b6118e65760405162461bcd60e51b815260040180806020018281038252602c81526020018061268a602c913960400191505060405180910390fd5b60006118f183610f27565b9050806001600160a01b0316846001600160a01b0316148061192c5750836001600160a01b031661192184610989565b6001600160a01b0316145b8061193c575061193c8185611684565b949350505050565b826001600160a01b031661195782610f27565b6001600160a01b03161461199c5760405162461bcd60e51b815260040180806020018281038252602981526020018061278f6029913960400191505060405180910390fd5b6001600160a01b0382166119e15760405162461bcd60e51b815260040180806020018281038252602481526020018061263d6024913960400191505060405180910390fd5b6119ec838383610ac1565b6119f7600082611827565b6001600160a01b0383166000908152600160205260409020611a1f908263ffffffff611ced16565b506001600160a01b0382166000908152600160205260409020611a48908263ffffffff611cf916565b50611a5b6002828463ffffffff611d0516565b5080826001600160a01b0316846001600160a01b03167fddf252ad1be2c89b69c2b068fc378daa952ba7f163c4a11628f55a4df523b3ef60405160405180910390a4505050565b6000610d628383611d1b565b6000808080611abd8686611d7f565b9097909650945050505050565b6000611ad582610f27565b9050611ae381600084610ac1565b611aee600083611827565b6000828152600860205260409020546002600019610100600184161502019091160415611b2c576000828152600860205260408120611b2c91612542565b6001600160a01b0381166000908152600160205260409020611b54908363ffffffff611ced16565b50611b6660028363ffffffff611dfa16565b5060405182906000906001600160a01b038416907fddf252ad1be2c89b69c2b068fc378daa952ba7f163c4a11628f55a4df523b3ef908390a45050565b600061193c848484611e06565b611bbb848484611944565b611bc784848484611ed0565b61128f5760405162461bcd60e51b81526004018080602001828103825260328152602001806125e66032913960400191505060405180910390fd5b606081611c2757506040805180820190915260018152600360fc1b60208201526108ed565b8160005b8115611c3f57600101600a82049150611c2b565b60608167ffffffffffffffff81118015611c5857600080fd5b506040519080825280601f01601f191660200182016040528015611c83576020820181803683370190505b50859350905060001982015b8315611cd457600a840660300160f81b82828060019003935081518110611cb257fe5b60200101906001600160f81b031916908160001a905350600a84049350611c8f565b50949350505050565b6000610d628383612050565b5490565b6000610d628383612068565b6000610d62838361212e565b600061193c84846001600160a01b038516612178565b81546000908210611d5d5760405162461bcd60e51b815260040180806020018281038252602281526020018061259d6022913960400191505060405180910390fd5b826000018281548110611d6c57fe5b9060005260206000200154905092915050565b815460009081908310611dc35760405162461bcd60e51b81526004018080602001828103825260228152602001806127416022913960400191505060405180910390fd5b6000846000018481548110611dd457fe5b906000526020600020906002020190508060000154816001015492509250509250929050565b6000610d62838361220f565b60008281526001840160205260408120548281611ea15760405162461bcd60e51b81526004018080602001828103825283818151815260200191508051906020019080838360005b83811015611e66578181015183820152602001611e4e565b50505050905090810190601f168015611e935780820380516001836020036101000a031916815260200191505b509250505060405180910390fd5b50846000016001820381548110611eb457fe5b9060005260206000209060020201600101549150509392505050565b6000611ee4846001600160a01b03166122e3565b611ef05750600161193c565b6060612016630a85bd0160e11b611f05611823565b88878760405160240180856001600160a01b03166001600160a01b03168152602001846001600160a01b03166001600160a01b0316815260200183815260200180602001828103825283818151815260200191508051906020019080838360005b83811015611f7e578181015183820152602001611f66565b50505050905090810190601f168015611fab5780820380516001836020036101000a031916815260200191505b5095505050505050604051602081830303815290604052906001600160e01b0319166020820180516001600160e01b0383818316178352505050506040518060600160405280603281526020016125e6603291396001600160a01b038816919063ffffffff61231c16565b9050600081806020019051602081101561202f57600080fd5b50516001600160e01b031916630a85bd0160e11b1492505050949350505050565b60009081526001919091016020526040902054151590565b60008181526001830160205260408120548015612124578354600019808301919081019060009087908390811061209b57fe5b90600052602060002001549050808760000184815481106120b857fe5b6000918252602080832090910192909255828152600189810190925260409020908401905586548790806120e857fe5b60019003818190600052602060002001600090559055866001016000878152602001908152602001600020600090556001945050505050610b3c565b6000915050610b3c565b600061213a8383612050565b61217057508154600181810184556000848152602080822090930184905584548482528286019093526040902091909155610b3c565b506000610b3c565b6000828152600184016020526040812054806121dd575050604080518082018252838152602080820184815286546001818101895560008981528481209551600290930290950191825591519082015586548684528188019092529290912055610d62565b828560000160018303815481106121f057fe5b9060005260206000209060020201600101819055506000915050610d62565b60008181526001830160205260408120548015612124578354600019808301919081019060009087908390811061224257fe5b906000526020600020906002020190508087600001848154811061226257fe5b6000918252602080832084546002909302019182556001938401549184019190915583548252898301905260409020908401905586548790806122a157fe5b6000828152602080822060026000199094019384020182815560019081018390559290935588815289820190925260408220919091559450610b3c9350505050565b6000813f7fc5d2460186f7233c927e7db2dcc703c0e500b653ca82273b7bfad8045d85a47081811480159061193c575050151592915050565b606061193c84846000856060612331856122e3565b612382576040805162461bcd60e51b815260206004820152601d60248201527f416464726573733a2063616c6c20746f206e6f6e2d636f6e7472616374000000604482015290519081900360640190fd5b60006060866001600160a01b031685876040518082805190602001908083835b602083106123c15780518252601f1990920191602091820191016123a2565b6001836020036101000a03801982511681845116808217855250505050505090500191505060006040518083038185875af1925050503d8060008114612423576040519150601f19603f3d011682016040523d82523d6000602084013e612428565b606091505b5091509150811561243c57915061193c9050565b80511561244c5780518082602001fd5b60405162461bcd60e51b8152602060048201818152865160248401528651879391928392604401919085019080838360008315611e66578181015183820152602001611e4e565b604051806080016040528060008152602001606081526020016060815260200160006001600160a01b031681525090565b828054600181600116156101000203166002900490600052602060002090601f016020900481019282601f1061250557805160ff1916838001178555612532565b82800160010185558215612532579182015b82811115612532578251825591602001919060010190612517565b5061253e929150612582565b5090565b50805460018160011615610100020316600290046000825580601f106125685750610f24565b601f016020900490600052602060002090810190610f2491905b61098691905b8082111561253e576000815560010161258856fe456e756d657261626c655365743a20696e646578206f7574206f6620626f756e6473536f7272792c20776520646f6e2774206861766520656e6f7567682070726f64756374732e2e2e4552433732313a207472616e7366657220746f206e6f6e20455243373231526563656976657220696d706c656d656e74657250726f64756374204e616d65206669656c642063616e6e6f7420626520656d7074792e2e2e4552433732313a207472616e7366657220746f20746865207a65726f2061646472657373436f7474616765204c6f636174696f6e206669656c642063616e6e6f7420626520656d7074792e2e2e4552433732313a206f70657261746f7220717565727920666f72206e6f6e6578697374656e7420746f6b656e4552433732313a20617070726f76652063616c6c6572206973206e6f74206f776e6572206e6f7220617070726f76656420666f7220616c6c4552433732313a2062616c616e636520717565727920666f7220746865207a65726f20616464726573734552433732313a206f776e657220717565727920666f72206e6f6e6578697374656e7420746f6b656e456e756d657261626c654d61703a20696e646578206f7574206f6620626f756e64734552433732313a20617070726f76656420717565727920666f72206e6f6e6578697374656e7420746f6b656e4552433732313a207472616e73666572206f6620746f6b656e2074686174206973206e6f74206f776e4552433732314d657461646174613a2055524920717565727920666f72206e6f6e6578697374656e7420746f6b656e4552433732313a20617070726f76616c20746f2063757272656e74206f776e6572436f7474616765204e616d65206669656c642063616e6e6f7420626520656d7074792e2e2e4552433732313a207472616e736665722063616c6c6572206973206e6f74206f776e6572206e6f7220617070726f766564a264697066735822122077a4812af92bf33cfa868e043c27a8ae6dedb9135915388f939ce3c842a290c864736f6c63430006090033",
    "sourcePath": "c:/Users/hp/Desktop/Social Coupons/contracts/Cottage.sol",
    "compiler": {
        "name": "solc",
        "version": "0.6.9+commit.3e3065ac"
    },
    "functionHashes": {
        "approve(address,uint256)": "095ea7b3",
        "balanceOf(address)": "70a08231",
        "baseURI()": "6c0360eb",
        "cottages(uint256)": "e763225f",
        "getApproved(uint256)": "081812fc",
        "isApprovedForAll(address,address)": "e985e9c5",
        "name()": "06fdde03",
        "ownerOf(uint256)": "6352211e",
        "products(uint256)": "7acc0b20",
        "registerCottage(string,string)": "46862afe",
        "registerProduct(string,uint256,uint256)": "f20f8e41",
        "retrieveCottageDetails(uint256)": "244a8d23",
        "safeTransferFrom(address,address,uint256)": "42842e0e",
        "safeTransferFrom(address,address,uint256,bytes)": "b88d4fde",
        "sellProduct(uint256,uint256)": "18b30a48",
        "setApprovalForAll(address,bool)": "a22cb465",
        "settlement(uint256)": "60ad2391",
        "supportsInterface(bytes4)": "01ffc9a7",
        "symbol()": "95d89b41",
        "tokenByIndex(uint256)": "4f6ccce7",
        "tokenOfOwnerByIndex(address,uint256)": "2f745c59",
        "tokenURI(uint256)": "c87b56dd",
        "totalSupply()": "18160ddd",
        "transferFrom(address,address,uint256)": "23b872dd"
    },
    "gasEstimates": {
        "creation": {
            "codeDepositCost": "2077400",
            "executionCost": "infinite",
            "totalCost": "infinite"
        },
        "external": {
            "approve(address,uint256)": "infinite",
            "balanceOf(address)": "infinite",
            "baseURI()": "infinite",
            "cottages(uint256)": "infinite",
            "getApproved(uint256)": "infinite",
            "isApprovedForAll(address,address)": "1372",
            "name()": "infinite",
            "ownerOf(uint256)": "infinite",
            "products(uint256)": "infinite",
            "registerCottage(string,string)": "infinite",
            "registerProduct(string,uint256,uint256)": "infinite",
            "retrieveCottageDetails(uint256)": "infinite",
            "safeTransferFrom(address,address,uint256)": "infinite",
            "safeTransferFrom(address,address,uint256,bytes)": "infinite",
            "sellProduct(uint256,uint256)": "infinite",
            "setApprovalForAll(address,bool)": "infinite",
            "settlement(uint256)": "infinite",
            "supportsInterface(bytes4)": "1196",
            "symbol()": "infinite",
            "tokenByIndex(uint256)": "infinite",
            "tokenOfOwnerByIndex(address,uint256)": "infinite",
            "tokenURI(uint256)": "infinite",
            "totalSupply()": "1185",
            "transferFrom(address,address,uint256)": "infinite"
        }
    }
}