{
    "contractName": "NGO",
    "abi": [
        {
            "inputs": [],
            "stateMutability": "nonpayable",
            "type": "constructor"
        },
        {
            "anonymous": false,
            "inputs": [
                {
                    "indexed": true,
                    "internalType": "address",
                    "name": "owner",
                    "type": "address"
                },
                {
                    "indexed": true,
                    "internalType": "address",
                    "name": "approved",
                    "type": "address"
                },
                {
                    "indexed": true,
                    "internalType": "uint256",
                    "name": "tokenId",
                    "type": "uint256"
                }
            ],
            "name": "Approval",
            "type": "event"
        },
        {
            "anonymous": false,
            "inputs": [
                {
                    "indexed": true,
                    "internalType": "address",
                    "name": "owner",
                    "type": "address"
                },
                {
                    "indexed": true,
                    "internalType": "address",
                    "name": "operator",
                    "type": "address"
                },
                {
                    "indexed": false,
                    "internalType": "bool",
                    "name": "approved",
                    "type": "bool"
                }
            ],
            "name": "ApprovalForAll",
            "type": "event"
        },
        {
            "anonymous": false,
            "inputs": [
                {
                    "indexed": false,
                    "internalType": "string",
                    "name": "eventName",
                    "type": "string"
                },
                {
                    "indexed": false,
                    "internalType": "string",
                    "name": "eventDate",
                    "type": "string"
                },
                {
                    "indexed": false,
                    "internalType": "uint256",
                    "name": "eventHours",
                    "type": "uint256"
                },
                {
                    "indexed": false,
                    "internalType": "uint256",
                    "name": "eventAmount",
                    "type": "uint256"
                },
                {
                    "indexed": false,
                    "internalType": "address",
                    "name": "eventOrganizer",
                    "type": "address"
                }
            ],
            "name": "EventAdded",
            "type": "event"
        },
        {
            "anonymous": false,
            "inputs": [
                {
                    "indexed": true,
                    "internalType": "address",
                    "name": "from",
                    "type": "address"
                },
                {
                    "indexed": true,
                    "internalType": "address",
                    "name": "to",
                    "type": "address"
                },
                {
                    "indexed": true,
                    "internalType": "uint256",
                    "name": "tokenId",
                    "type": "uint256"
                }
            ],
            "name": "Transfer",
            "type": "event"
        },
        {
            "inputs": [
                {
                    "internalType": "string",
                    "name": "_eventName",
                    "type": "string"
                },
                {
                    "internalType": "string",
                    "name": "_eventDate",
                    "type": "string"
                },
                {
                    "internalType": "uint256",
                    "name": "_hours",
                    "type": "uint256"
                },
                {
                    "internalType": "uint256",
                    "name": "_amount",
                    "type": "uint256"
                }
            ],
            "name": "addEvents",
            "outputs": [],
            "stateMutability": "nonpayable",
            "type": "function"
        },
        {
            "inputs": [
                {
                    "internalType": "address",
                    "name": "to",
                    "type": "address"
                },
                {
                    "internalType": "uint256",
                    "name": "tokenId",
                    "type": "uint256"
                }
            ],
            "name": "approve",
            "outputs": [],
            "stateMutability": "nonpayable",
            "type": "function"
        },
        {
            "inputs": [
                {
                    "internalType": "address",
                    "name": "owner",
                    "type": "address"
                }
            ],
            "name": "balanceOf",
            "outputs": [
                {
                    "internalType": "uint256",
                    "name": "",
                    "type": "uint256"
                }
            ],
            "stateMutability": "view",
            "type": "function"
        },
        {
            "inputs": [],
            "name": "baseURI",
            "outputs": [
                {
                    "internalType": "string",
                    "name": "",
                    "type": "string"
                }
            ],
            "stateMutability": "view",
            "type": "function"
        },
        {
            "inputs": [],
            "name": "eventCount",
            "outputs": [
                {
                    "internalType": "uint256",
                    "name": "",
                    "type": "uint256"
                }
            ],
            "stateMutability": "view",
            "type": "function"
        },
        {
            "inputs": [
                {
                    "internalType": "uint256",
                    "name": "",
                    "type": "uint256"
                }
            ],
            "name": "events",
            "outputs": [
                {
                    "internalType": "string",
                    "name": "eventName",
                    "type": "string"
                },
                {
                    "internalType": "string",
                    "name": "eventDate",
                    "type": "string"
                },
                {
                    "internalType": "uint256",
                    "name": "eventHours",
                    "type": "uint256"
                },
                {
                    "internalType": "uint256",
                    "name": "eventAmount",
                    "type": "uint256"
                },
                {
                    "internalType": "address",
                    "name": "eventOrganizer",
                    "type": "address"
                }
            ],
            "stateMutability": "view",
            "type": "function"
        },
        {
            "inputs": [
                {
                    "internalType": "uint256",
                    "name": "tokenId",
                    "type": "uint256"
                }
            ],
            "name": "getApproved",
            "outputs": [
                {
                    "internalType": "address",
                    "name": "",
                    "type": "address"
                }
            ],
            "stateMutability": "view",
            "type": "function"
        },
        {
            "inputs": [
                {
                    "internalType": "address",
                    "name": "owner",
                    "type": "address"
                },
                {
                    "internalType": "address",
                    "name": "operator",
                    "type": "address"
                }
            ],
            "name": "isApprovedForAll",
            "outputs": [
                {
                    "internalType": "bool",
                    "name": "",
                    "type": "bool"
                }
            ],
            "stateMutability": "view",
            "type": "function"
        },
        {
            "inputs": [
                {
                    "internalType": "address",
                    "name": "_receiver",
                    "type": "address"
                },
                {
                    "internalType": "string",
                    "name": "tokenURI",
                    "type": "string"
                }
            ],
            "name": "issueCoupon",
            "outputs": [
                {
                    "internalType": "uint256",
                    "name": "",
                    "type": "uint256"
                }
            ],
            "stateMutability": "nonpayable",
            "type": "function"
        },
        {
            "inputs": [],
            "name": "name",
            "outputs": [
                {
                    "internalType": "string",
                    "name": "",
                    "type": "string"
                }
            ],
            "stateMutability": "view",
            "type": "function"
        },
        {
            "inputs": [],
            "name": "ngoCount",
            "outputs": [
                {
                    "internalType": "uint256",
                    "name": "",
                    "type": "uint256"
                }
            ],
            "stateMutability": "view",
            "type": "function"
        },
        {
            "inputs": [
                {
                    "internalType": "uint256",
                    "name": "",
                    "type": "uint256"
                }
            ],
            "name": "ngoList",
            "outputs": [
                {
                    "internalType": "string",
                    "name": "ngoName",
                    "type": "string"
                },
                {
                    "internalType": "address",
                    "name": "ngoFounder",
                    "type": "address"
                },
                {
                    "internalType": "string",
                    "name": "ngoEmail",
                    "type": "string"
                },
                {
                    "internalType": "string",
                    "name": "ngoPhone",
                    "type": "string"
                }
            ],
            "stateMutability": "view",
            "type": "function"
        },
        {
            "inputs": [
                {
                    "internalType": "address",
                    "name": "",
                    "type": "address"
                }
            ],
            "name": "ngoOwners",
            "outputs": [
                {
                    "internalType": "bool",
                    "name": "",
                    "type": "bool"
                }
            ],
            "stateMutability": "view",
            "type": "function"
        },
        {
            "inputs": [
                {
                    "internalType": "uint256",
                    "name": "tokenId",
                    "type": "uint256"
                }
            ],
            "name": "ownerOf",
            "outputs": [
                {
                    "internalType": "address",
                    "name": "",
                    "type": "address"
                }
            ],
            "stateMutability": "view",
            "type": "function"
        },
        {
            "inputs": [
                {
                    "internalType": "string",
                    "name": "_ngoName",
                    "type": "string"
                },
                {
                    "internalType": "string",
                    "name": "_ngoEmail",
                    "type": "string"
                },
                {
                    "internalType": "string",
                    "name": "_ngoPhone",
                    "type": "string"
                }
            ],
            "name": "registerNGO",
            "outputs": [],
            "stateMutability": "nonpayable",
            "type": "function"
        },
        {
            "inputs": [
                {
                    "internalType": "uint256",
                    "name": "_eventId",
                    "type": "uint256"
                }
            ],
            "name": "retrieveEventDetails",
            "outputs": [
                {
                    "internalType": "string",
                    "name": "eventName",
                    "type": "string"
                },
                {
                    "internalType": "string",
                    "name": "eventDate",
                    "type": "string"
                },
                {
                    "internalType": "address",
                    "name": "eventOrganizer",
                    "type": "address"
                }
            ],
            "stateMutability": "view",
            "type": "function"
        },
        {
            "inputs": [
                {
                    "internalType": "uint256",
                    "name": "_ngoId",
                    "type": "uint256"
                }
            ],
            "name": "retrieveNGODetails",
            "outputs": [
                {
                    "internalType": "string",
                    "name": "ngoName",
                    "type": "string"
                },
                {
                    "internalType": "address",
                    "name": "ngoFounder",
                    "type": "address"
                },
                {
                    "internalType": "string",
                    "name": "ngoEmail",
                    "type": "string"
                },
                {
                    "internalType": "string",
                    "name": "ngoPhone",
                    "type": "string"
                }
            ],
            "stateMutability": "view",
            "type": "function"
        },
        {
            "inputs": [
                {
                    "internalType": "address",
                    "name": "from",
                    "type": "address"
                },
                {
                    "internalType": "address",
                    "name": "to",
                    "type": "address"
                },
                {
                    "internalType": "uint256",
                    "name": "tokenId",
                    "type": "uint256"
                }
            ],
            "name": "safeTransferFrom",
            "outputs": [],
            "stateMutability": "nonpayable",
            "type": "function"
        },
        {
            "inputs": [
                {
                    "internalType": "address",
                    "name": "from",
                    "type": "address"
                },
                {
                    "internalType": "address",
                    "name": "to",
                    "type": "address"
                },
                {
                    "internalType": "uint256",
                    "name": "tokenId",
                    "type": "uint256"
                },
                {
                    "internalType": "bytes",
                    "name": "_data",
                    "type": "bytes"
                }
            ],
            "name": "safeTransferFrom",
            "outputs": [],
            "stateMutability": "nonpayable",
            "type": "function"
        },
        {
            "inputs": [
                {
                    "internalType": "address",
                    "name": "operator",
                    "type": "address"
                },
                {
                    "internalType": "bool",
                    "name": "approved",
                    "type": "bool"
                }
            ],
            "name": "setApprovalForAll",
            "outputs": [],
            "stateMutability": "nonpayable",
            "type": "function"
        },
        {
            "inputs": [
                {
                    "internalType": "bytes4",
                    "name": "interfaceId",
                    "type": "bytes4"
                }
            ],
            "name": "supportsInterface",
            "outputs": [
                {
                    "internalType": "bool",
                    "name": "",
                    "type": "bool"
                }
            ],
            "stateMutability": "view",
            "type": "function"
        },
        {
            "inputs": [],
            "name": "symbol",
            "outputs": [
                {
                    "internalType": "string",
                    "name": "",
                    "type": "string"
                }
            ],
            "stateMutability": "view",
            "type": "function"
        },
        {
            "inputs": [
                {
                    "internalType": "uint256",
                    "name": "index",
                    "type": "uint256"
                }
            ],
            "name": "tokenByIndex",
            "outputs": [
                {
                    "internalType": "uint256",
                    "name": "",
                    "type": "uint256"
                }
            ],
            "stateMutability": "view",
            "type": "function"
        },
        {
            "inputs": [
                {
                    "internalType": "address",
                    "name": "owner",
                    "type": "address"
                },
                {
                    "internalType": "uint256",
                    "name": "index",
                    "type": "uint256"
                }
            ],
            "name": "tokenOfOwnerByIndex",
            "outputs": [
                {
                    "internalType": "uint256",
                    "name": "",
                    "type": "uint256"
                }
            ],
            "stateMutability": "view",
            "type": "function"
        },
        {
            "inputs": [
                {
                    "internalType": "uint256",
                    "name": "tokenId",
                    "type": "uint256"
                }
            ],
            "name": "tokenURI",
            "outputs": [
                {
                    "internalType": "string",
                    "name": "",
                    "type": "string"
                }
            ],
            "stateMutability": "view",
            "type": "function"
        },
        {
            "inputs": [],
            "name": "totalSupply",
            "outputs": [
                {
                    "internalType": "uint256",
                    "name": "",
                    "type": "uint256"
                }
            ],
            "stateMutability": "view",
            "type": "function"
        },
        {
            "inputs": [
                {
                    "internalType": "address",
                    "name": "from",
                    "type": "address"
                },
                {
                    "internalType": "address",
                    "name": "to",
                    "type": "address"
                },
                {
                    "internalType": "uint256",
                    "name": "tokenId",
                    "type": "uint256"
                }
            ],
            "name": "transferFrom",
            "outputs": [],
            "stateMutability": "nonpayable",
            "type": "function"
        }
    ],
    "bytecode": "60806040526000600a556000600e553480156200001b57600080fd5b50604080518082018252601081526f2b37b63ab73a32b2b91021b7bab837b760811b60208083019190915282518084019093526002835261534360f01b9083015290620000786301ffc9a760e01b6001600160e01b03620000fd16565b81516200008d90600690602085019062000182565b508051620000a390600790602084019062000182565b50620000bf6380ac58cd60e01b6001600160e01b03620000fd16565b620000da635b5e139f60e01b6001600160e01b03620000fd16565b620000f563780e9d6360e01b6001600160e01b03620000fd16565b505062000227565b6001600160e01b031980821614156200015d576040805162461bcd60e51b815260206004820152601c60248201527f4552433136353a20696e76616c696420696e7465726661636520696400000000604482015290519081900360640190fd5b6001600160e01b0319166000908152602081905260409020805460ff19166001179055565b828054600181600116156101000203166002900490600052602060002090601f016020900481019282601f10620001c557805160ff1916838001178555620001f5565b82800160010185558215620001f5579182015b82811115620001f5578251825591602001919060010190620001d8565b506200020392915062000207565b5090565b6200022491905b808211156200020357600081556001016200020e565b90565b61311280620002376000396000f3fe608060405234801561001057600080fd5b50600436106101a95760003560e01c80634fe1af77116100f957806395d89b4111610097578063b88d4fde11610071578063b88d4fde14610b5b578063c87b56dd14610c1f578063e022f63414610c3c578063e985e9c514610c44576101a9565b806395d89b4114610b08578063967f898214610b10578063a22cb46514610b2d576101a9565b80636c0360eb116100d35780636c0360eb146109be57806370a08231146109c657806371be2e4a146109ec5780638f7ce476146109f4576101a9565b80634fe1af77146108c757806359ed7b74146108ed5780636352211e146109a1576101a9565b806323b872dd116101665780633d608ff1116101405780633d608ff11461059857806342842e0e146106c657806348f667b3146106fc5780634f6ccce7146108aa576101a9565b806323b872dd146103ff5780632f745c59146104355780633a9bed9d14610461576101a9565b806301ffc9a7146101ae57806306fdde03146101e9578063081812fc14610266578063095ea7b31461029f5780630b791430146102cd57806318160ddd146103e5575b600080fd5b6101d5600480360360208110156101c457600080fd5b50356001600160e01b031916610c72565b604080519115158252519081900360200190f35b6101f1610c95565b6040805160208082528351818301528351919283929083019185019080838360005b8381101561022b578181015183820152602001610213565b50505050905090810190601f1680156102585780820380516001836020036101000a031916815260200191505b509250505060405180910390f35b6102836004803603602081101561027c57600080fd5b5035610d2c565b604080516001600160a01b039092168252519081900360200190f35b6102cb600480360360408110156102b557600080fd5b506001600160a01b038135169060200135610d8e565b005b6102ea600480360360208110156102e357600080fd5b5035610e69565b60408051908101849052606081018390526001600160a01b038216608082015260a08082528651908201528551819060208083019160c08401918a019080838360005b8381101561034557818101518382015260200161032d565b50505050905090810190601f1680156103725780820380516001836020036101000a031916815260200191505b50838103825287518152875160209182019189019080838360005b838110156103a557818101518382015260200161038d565b50505050905090810190601f1680156103d25780820380516001836020036101000a031916815260200191505b5097505050505050505060405180910390f35b6103ed610fc5565b60408051918252519081900360200190f35b6102cb6004803603606081101561041557600080fd5b506001600160a01b03813581169160208101359091169060400135610fd6565b6103ed6004803603604081101561044b57600080fd5b506001600160a01b03813516906020013561102d565b61047e6004803603602081101561047757600080fd5b503561105e565b6040518080602001856001600160a01b03166001600160a01b031681526020018060200180602001848103845288818151815260200191508051906020019080838360005b838110156104db5781810151838201526020016104c3565b50505050905090810190601f1680156105085780820380516001836020036101000a031916815260200191505b50848103835286518152865160209182019188019080838360005b8381101561053b578181015183820152602001610523565b50505050905090810190601f1680156105685780820380516001836020036101000a031916815260200191505b508481038252855181528551602091820191870190808383600083156103a557818101518382015260200161038d565b6102cb600480360360808110156105ae57600080fd5b810190602081018135600160201b8111156105c857600080fd5b8201836020820111156105da57600080fd5b803590602001918460018302840111600160201b831117156105fb57600080fd5b91908080601f0160208091040260200160405190810160405280939291908181526020018383808284376000920191909152509295949360208101935035915050600160201b81111561064d57600080fd5b82018360208201111561065f57600080fd5b803590602001918460018302840111600160201b8311171561068057600080fd5b91908080601f0160208091040260200160405190810160405280939291908181526020018383808284376000920191909152509295505082359350505060200135611276565b6102cb600480360360608110156106dc57600080fd5b506001600160a01b03813581169160208101359091169060400135611527565b6102cb6004803603606081101561071257600080fd5b810190602081018135600160201b81111561072c57600080fd5b82018360208201111561073e57600080fd5b803590602001918460018302840111600160201b8311171561075f57600080fd5b91908080601f0160208091040260200160405190810160405280939291908181526020018383808284376000920191909152509295949360208101935035915050600160201b8111156107b157600080fd5b8201836020820111156107c357600080fd5b803590602001918460018302840111600160201b831117156107e457600080fd5b91908080601f0160208091040260200160405190810160405280939291908181526020018383808284376000920191909152509295949360208101935035915050600160201b81111561083657600080fd5b82018360208201111561084857600080fd5b803590602001918460018302840111600160201b8311171561086957600080fd5b91908080601f016020809104026020016040519081016040528093929190818152602001838380828437600092019190915250929550611542945050505050565b6103ed600480360360208110156108c057600080fd5b50356116d0565b6101d5600480360360208110156108dd57600080fd5b50356001600160a01b03166116ec565b6103ed6004803603604081101561090357600080fd5b6001600160a01b038235169190810190604081016020820135600160201b81111561092d57600080fd5b82018360208201111561093f57600080fd5b803590602001918460018302840111600160201b8311171561096057600080fd5b91908080601f016020809104026020016040519081016040528093929190818152602001838380828437600092019190915250929550611701945050505050565b610283600480360360208110156109b757600080fd5b503561172f565b6101f161175d565b6103ed600480360360208110156109dc57600080fd5b50356001600160a01b03166117be565b6103ed611826565b610a1160048036036020811015610a0a57600080fd5b503561182c565b604051808060200180602001846001600160a01b03166001600160a01b03168152602001838103835286818151815260200191508051906020019080838360005b83811015610a6a578181015183820152602001610a52565b50505050905090810190601f168015610a975780820380516001836020036101000a031916815260200191505b50838103825285518152855160209182019187019080838360005b83811015610aca578181015183820152602001610ab2565b50505050905090810190601f168015610af75780820380516001836020036101000a031916815260200191505b509550505050505060405180910390f35b6101f16119c7565b61047e60048036036020811015610b2657600080fd5b5035611a28565b6102cb60048036036040811015610b4357600080fd5b506001600160a01b0381351690602001351515611bfd565b6102cb60048036036080811015610b7157600080fd5b6001600160a01b03823581169260208101359091169160408201359190810190608081016060820135600160201b811115610bab57600080fd5b820183602082011115610bbd57600080fd5b803590602001918460018302840111600160201b83111715610bde57600080fd5b91908080601f016020809104026020016040519081016040528093929190818152602001838380828437600092019190915250929550611d02945050505050565b6101f160048036036020811015610c3557600080fd5b5035611d60565b6103ed612007565b6101d560048036036040811015610c5a57600080fd5b506001600160a01b038135811691602001351661200d565b6001600160e01b0319811660009081526020819052604090205460ff165b919050565b60068054604080516020601f6002600019610100600188161502019095169490940493840181900481028201810190925282815260609390929091830182828015610d215780601f10610cf657610100808354040283529160200191610d21565b820191906000526020600020905b815481529060010190602001808311610d0457829003601f168201915b505050505090505b90565b6000610d378261203b565b610d725760405162461bcd60e51b815260040180806020018281038252602c815260200180612f97602c913960400191505060405180910390fd5b506000908152600460205260409020546001600160a01b031690565b6000610d998261172f565b9050806001600160a01b0316836001600160a01b03161415610dec5760405162461bcd60e51b81526004018080602001828103825260218152602001806130686021913960400191505060405180910390fd5b806001600160a01b0316610dfe61204e565b6001600160a01b03161480610e1f5750610e1f81610e1a61204e565b61200d565b610e5a5760405162461bcd60e51b8152600401808060200182810382526038815260200180612ec76038913960400191505060405180910390fd5b610e648383612052565b505050565b600f6020908152600091825260409182902080548351601f60026000196101006001861615020190931692909204918201849004840281018401909452808452909291839190830182828015610f005780601f10610ed557610100808354040283529160200191610f00565b820191906000526020600020905b815481529060010190602001808311610ee357829003601f168201915b505050505090806001018054600181600116156101000203166002900480601f016020809104026020016040519081016040528092919081815260200182805460018160011615610100020316600290048015610f9e5780601f10610f7357610100808354040283529160200191610f9e565b820191906000526020600020905b815481529060010190602001808311610f8157829003601f168201915b5050505060028301546003840154600490940154929390929091506001600160a01b031685565b6000610fd160026120c0565b905090565b610fe7610fe161204e565b826120cb565b6110225760405162461bcd60e51b81526004018080602001828103825260318152602001806130ac6031913960400191505060405180910390fd5b610e6483838361216f565b6001600160a01b0382166000908152600160205260408120611055908363ffffffff6122cd16565b90505b92915050565b6060600060608061106d612cb5565b6000868152600b60209081526040918290208251815460026001821615610100026000190190911604601f8101849004909302810160a09081019094526080810183815290939192849284919084018282801561110b5780601f106110e05761010080835404028352916020019161110b565b820191906000526020600020905b8154815290600101906020018083116110ee57829003601f168201915b50505091835250506001828101546001600160a01b0316602080840191909152600280850180546040805161010096831615969096026000190190911692909204601f810184900484028501840183528085529190940193918301828280156111b55780601f1061118a576101008083540402835291602001916111b5565b820191906000526020600020905b81548152906001019060200180831161119857829003601f168201915b505050918352505060038201805460408051602060026001851615610100026000190190941693909304601f81018490048402820184019092528181529382019392918301828280156112495780601f1061121e57610100808354040283529160200191611249565b820191906000526020600020905b81548152906001019060200180831161122c57829003601f168201915b505050919092525050815160208301516040840151606090940151919a9099509297509550909350505050565b60008451116112b65760405162461bcd60e51b81526004018080602001828103825260238152602001806130896023913960400191505060405180910390fd5b60008351116112f65760405162461bcd60e51b8152600401808060200182810382526023815260200180612eff6023913960400191505060405180910390fd5b336000908152600c602052604090205460ff166113445760405162461bcd60e51b8152600401808060200182810382526024815260200180612ea36024913960400191505060405180910390fd5b600e8054600101908190556040805160a0810182528681526020808201879052818301869052606082018590523360808301526000938452600f81529190922082518051919261139992849290910190612ce6565b5060208281015180516113b29260018501920190612ce6565b50604082015181600201556060820151816003015560808201518160040160006101000a8154816001600160a01b0302191690836001600160a01b031602179055509050507f580c34b522cbc6393fcbedf7e2db0e191af838b5e4435b05faab01174811e4798484848433604051808060200180602001868152602001858152602001846001600160a01b03166001600160a01b03168152602001838103835288818151815260200191508051906020019080838360005b8381101561148257818101518382015260200161146a565b50505050905090810190601f1680156114af5780820380516001836020036101000a031916815260200191505b50838103825287518152875160209182019189019080838360005b838110156114e25781810151838201526020016114ca565b50505050905090810190601f16801561150f5780820380516001836020036101000a031916815260200191505b5097505050505050505060405180910390a150505050565b610e6483838360405180602001604052806000815250611d02565b60008351116115825760405162461bcd60e51b81526004018080602001828103825260218152602001806130476021913960400191505060405180910390fd5b60008251116115c25760405162461bcd60e51b8152600401808060200182810382526022815260200180612e0b6022913960400191505060405180910390fd5b60008151116116025760405162461bcd60e51b8152600401808060200182810382526026815260200180612e7d6026913960400191505060405180910390fd5b600a8054600101908190556040805160808101825285815233602080830191909152818301869052606082018590526000938452600b81529190922082518051919261165392849290910190612ce6565b506020828101516001830180546001600160a01b0319166001600160a01b03909216919091179055604083015180516116929260028501920190612ce6565b50606082015180516116ae916003840191602090910190612ce6565b5050336000908152600c60205260409020805460ff1916600117905550505050565b6000806116e460028463ffffffff6122d916565b509392505050565b600c6020526000908152604090205460ff1681565b600061170d600d6122f5565b6000611719600d6122fe565b90506117258482612302565b611055818461243c565b600061105882604051806060016040528060298152602001612f4c602991396002919063ffffffff61249f16565b60098054604080516020601f6002600019610100600188161502019095169490940493840181900481028201810190925282815260609390929091830182828015610d215780601f10610cf657610100808354040283529160200191610d21565b60006001600160a01b0382166118055760405162461bcd60e51b815260040180806020018281038252602a815260200180612f22602a913960400191505060405180910390fd5b6001600160a01b0382166000908152600160205260409020611058906120c0565b600e5481565b6060806000611839612d64565b6000858152600f60209081526040918290208251815460026001821615610100026000190190911604601f8101849004909302810160c090810190945260a081018381529093919284928491908401828280156118d75780601f106118ac576101008083540402835291602001916118d7565b820191906000526020600020905b8154815290600101906020018083116118ba57829003601f168201915b50505050508152602001600182018054600181600116156101000203166002900480601f0160208091040260200160405190810160405280929190818152602001828054600181600116156101000203166002900480156119795780601f1061194e57610100808354040283529160200191611979565b820191906000526020600020905b81548152906001019060200180831161195c57829003601f168201915b50505091835250506002820154602080830191909152600383015460408301526004909201546001600160a01b03166060909101528151908201516080909201519097919650945092505050565b60078054604080516020601f6002600019610100600188161502019095169490940493840181900481028201810190925282815260609390929091830182828015610d215780601f10610cf657610100808354040283529160200191610d21565b600b6020908152600091825260409182902080548351601f60026000196101006001861615020190931692909204918201849004840281018401909452808452909291839190830182828015611abf5780601f10611a9457610100808354040283529160200191611abf565b820191906000526020600020905b815481529060010190602001808311611aa257829003601f168201915b505050506001838101546002808601805460408051602061010097841615979097026000190190921693909304601f810186900486028201860190935282815295966001600160a01b03909316959294509192830182828015611b635780601f10611b3857610100808354040283529160200191611b63565b820191906000526020600020905b815481529060010190602001808311611b4657829003601f168201915b5050505060038301805460408051602060026001851615610100026000190190941693909304601f8101849004840282018401909252818152949594935090830182828015611bf35780601f10611bc857610100808354040283529160200191611bf3565b820191906000526020600020905b815481529060010190602001808311611bd657829003601f168201915b5050505050905084565b611c0561204e565b6001600160a01b0316826001600160a01b03161415611c6b576040805162461bcd60e51b815260206004820152601960248201527f4552433732313a20617070726f766520746f2063616c6c657200000000000000604482015290519081900360640190fd5b8060056000611c7861204e565b6001600160a01b03908116825260208083019390935260409182016000908120918716808252919093529120805460ff191692151592909217909155611cbc61204e565b60408051841515815290516001600160a01b0392909216917f17307eab39ab6107e8899845ad3d59bd9653f200f220920489ca2b5937696c319181900360200190a35050565b611d13611d0d61204e565b836120cb565b611d4e5760405162461bcd60e51b81526004018080602001828103825260318152602001806130ac6031913960400191505060405180910390fd5b611d5a848484846124b6565b50505050565b6060611d6b8261203b565b611da65760405162461bcd60e51b815260040180806020018281038252602f815260200180613018602f913960400191505060405180910390fd5b60008281526008602090815260409182902080548351601f6002600019610100600186161502019093169290920491820184900484028101840190945280845260609392830182828015611e3b5780601f10611e1057610100808354040283529160200191611e3b565b820191906000526020600020905b815481529060010190602001808311611e1e57829003601f168201915b505060095493945050505060026000196101006001841615020190911604611e64579050610c90565b805115611f35576009816040516020018083805460018160011615610100020316600290048015611ecc5780601f10611eaa576101008083540402835291820191611ecc565b820191906000526020600020905b815481529060010190602001808311611eb8575b5050825160208401908083835b60208310611ef85780518252601f199092019160209182019101611ed9565b6001836020036101000a03801982511681845116808217855250505050505090500192505050604051602081830303815290604052915050610c90565b6009611f4084612508565b6040516020018083805460018160011615610100020316600290048015611f9e5780601f10611f7c576101008083540402835291820191611f9e565b820191906000526020600020905b815481529060010190602001808311611f8a575b5050825160208401908083835b60208310611fca5780518252601f199092019160209182019101611fab565b6001836020036101000a03801982511681845116808217855250505050505090500192505050604051602081830303815290604052915050919050565b600a5481565b6001600160a01b03918216600090815260056020908152604080832093909416825291909152205460ff1690565b600061105860028363ffffffff6125e316565b3390565b600081815260046020526040902080546001600160a01b0319166001600160a01b03841690811790915581906120878261172f565b6001600160a01b03167f8c5be1e5ebec7d5bd14f71427d1e84f3dd0314c0f7b2291e5b200ac8c7c3b92560405160405180910390a45050565b6000611058826122fe565b60006120d68261203b565b6121115760405162461bcd60e51b815260040180806020018281038252602c815260200180612e51602c913960400191505060405180910390fd5b600061211c8361172f565b9050806001600160a01b0316846001600160a01b031614806121575750836001600160a01b031661214c84610d2c565b6001600160a01b0316145b806121675750612167818561200d565b949350505050565b826001600160a01b03166121828261172f565b6001600160a01b0316146121c75760405162461bcd60e51b8152600401808060200182810382526029815260200180612fef6029913960400191505060405180910390fd5b6001600160a01b03821661220c5760405162461bcd60e51b8152600401808060200182810382526024815260200180612e2d6024913960400191505060405180910390fd5b612217838383610e64565b612222600082612052565b6001600160a01b038316600090815260016020526040902061224a908263ffffffff6125ef16565b506001600160a01b0382166000908152600160205260409020612273908263ffffffff6125fb16565b506122866002828463ffffffff61260716565b5080826001600160a01b0316846001600160a01b03167fddf252ad1be2c89b69c2b068fc378daa952ba7f163c4a11628f55a4df523b3ef60405160405180910390a4505050565b6000611055838361261d565b60008080806122e88686612681565b9097909650945050505050565b80546001019055565b5490565b6001600160a01b03821661235d576040805162461bcd60e51b815260206004820181905260248201527f4552433732313a206d696e7420746f20746865207a65726f2061646472657373604482015290519081900360640190fd5b6123668161203b565b156123b8576040805162461bcd60e51b815260206004820152601c60248201527f4552433732313a20746f6b656e20616c7265616479206d696e74656400000000604482015290519081900360640190fd5b6123c460008383610e64565b6001600160a01b03821660009081526001602052604090206123ec908263ffffffff6125fb16565b506123ff6002828463ffffffff61260716565b5060405181906001600160a01b038416906000907fddf252ad1be2c89b69c2b068fc378daa952ba7f163c4a11628f55a4df523b3ef908290a45050565b6124458261203b565b6124805760405162461bcd60e51b815260040180806020018281038252602c815260200180612fc3602c913960400191505060405180910390fd5b60008281526008602090815260409091208251610e6492840190612ce6565b60006124ac8484846126fc565b90505b9392505050565b6124c184848461216f565b6124cd848484846127c6565b611d5a5760405162461bcd60e51b8152600401808060200182810382526032815260200180612dd96032913960400191505060405180910390fd5b60608161252d57506040805180820190915260018152600360fc1b6020820152610c90565b8160005b811561254557600101600a82049150612531565b60608167ffffffffffffffff8111801561255e57600080fd5b506040519080825280601f01601f191660200182016040528015612589576020820181803683370190505b50859350905060001982015b83156125da57600a840660300160f81b828280600190039350815181106125b857fe5b60200101906001600160f81b031916908160001a905350600a84049350612595565b50949350505050565b60006110558383612946565b6000611055838361295e565b60006110558383612a24565b60006124ac84846001600160a01b038516612a6e565b8154600090821061265f5760405162461bcd60e51b8152600401808060200182810382526022815260200180612db76022913960400191505060405180910390fd5b82600001828154811061266e57fe5b9060005260206000200154905092915050565b8154600090819083106126c55760405162461bcd60e51b8152600401808060200182810382526022815260200180612f756022913960400191505060405180910390fd5b60008460000184815481106126d657fe5b906000526020600020906002020190508060000154816001015492509250509250929050565b600082815260018401602052604081205482816127975760405162461bcd60e51b81526004018080602001828103825283818151815260200191508051906020019080838360005b8381101561275c578181015183820152602001612744565b50505050905090810190601f1680156127895780820380516001836020036101000a031916815260200191505b509250505060405180910390fd5b508460000160018203815481106127aa57fe5b9060005260206000209060020201600101549150509392505050565b60006127da846001600160a01b0316612b05565b6127e657506001612167565b606061290c630a85bd0160e11b6127fb61204e565b88878760405160240180856001600160a01b03166001600160a01b03168152602001846001600160a01b03166001600160a01b0316815260200183815260200180602001828103825283818151815260200191508051906020019080838360005b8381101561287457818101518382015260200161285c565b50505050905090810190601f1680156128a15780820380516001836020036101000a031916815260200191505b5095505050505050604051602081830303815290604052906001600160e01b0319166020820180516001600160e01b038381831617835250505050604051806060016040528060328152602001612dd9603291396001600160a01b038816919063ffffffff612b3e16565b9050600081806020019051602081101561292557600080fd5b50516001600160e01b031916630a85bd0160e11b1492505050949350505050565b60009081526001919091016020526040902054151590565b60008181526001830160205260408120548015612a1a578354600019808301919081019060009087908390811061299157fe5b90600052602060002001549050808760000184815481106129ae57fe5b6000918252602080832090910192909255828152600189810190925260409020908401905586548790806129de57fe5b60019003818190600052602060002001600090559055866001016000878152602001908152602001600020600090556001945050505050611058565b6000915050611058565b6000612a308383612946565b612a6657508154600181810184556000848152602080822090930184905584548482528286019093526040902091909155611058565b506000611058565b600082815260018401602052604081205480612ad35750506040805180820182528381526020808201848152865460018181018955600089815284812095516002909302909501918255915190820155865486845281880190925292909120556124af565b82856000016001830381548110612ae657fe5b90600052602060002090600202016001018190555060009150506124af565b6000813f7fc5d2460186f7233c927e7db2dcc703c0e500b653ca82273b7bfad8045d85a470818114801590612167575050151592915050565b60606124ac84846000856060612b5385612b05565b612ba4576040805162461bcd60e51b815260206004820152601d60248201527f416464726573733a2063616c6c20746f206e6f6e2d636f6e7472616374000000604482015290519081900360640190fd5b60006060866001600160a01b031685876040518082805190602001908083835b60208310612be35780518252601f199092019160209182019101612bc4565b6001836020036101000a03801982511681845116808217855250505050505090500191505060006040518083038185875af1925050503d8060008114612c45576040519150601f19603f3d011682016040523d82523d6000602084013e612c4a565b606091505b50915091508115612c5e5791506121679050565b805115612c6e5780518082602001fd5b60405162461bcd60e51b815260206004820181815286516024840152865187939192839260440191908501908083836000831561275c578181015183820152602001612744565b60405180608001604052806060815260200160006001600160a01b0316815260200160608152602001606081525090565b828054600181600116156101000203166002900490600052602060002090601f016020900481019282601f10612d2757805160ff1916838001178555612d54565b82800160010185558215612d54579182015b82811115612d54578251825591602001919060010190612d39565b50612d60929150612d9c565b5090565b6040518060a001604052806060815260200160608152602001600081526020016000815260200160006001600160a01b031681525090565b610d2991905b80821115612d605760008155600101612da256fe456e756d657261626c655365743a20696e646578206f7574206f6620626f756e64734552433732313a207472616e7366657220746f206e6f6e20455243373231526563656976657220696d706c656d656e7465724e474f20456d61696c206669656c642063616e6e6f7420626520656d7074792e2e2e4552433732313a207472616e7366657220746f20746865207a65726f20616464726573734552433732313a206f70657261746f7220717565727920666f72206e6f6e6578697374656e7420746f6b656e4e474f2050686f6e65206e6f2e206669656c642063616e6e6f7420626520656d7074792e2e2e4f6e6c79204e474f204f776e6572732063616e20637265617465206576656e74732e2e2e4552433732313a20617070726f76652063616c6c6572206973206e6f74206f776e6572206e6f7220617070726f76656420666f7220616c6c4576656e742044617465206669656c642063616e6e6f7420626520656d7074792e2e2e4552433732313a2062616c616e636520717565727920666f7220746865207a65726f20616464726573734552433732313a206f776e657220717565727920666f72206e6f6e6578697374656e7420746f6b656e456e756d657261626c654d61703a20696e646578206f7574206f6620626f756e64734552433732313a20617070726f76656420717565727920666f72206e6f6e6578697374656e7420746f6b656e4552433732314d657461646174613a2055524920736574206f66206e6f6e6578697374656e7420746f6b656e4552433732313a207472616e73666572206f6620746f6b656e2074686174206973206e6f74206f776e4552433732314d657461646174613a2055524920717565727920666f72206e6f6e6578697374656e7420746f6b656e4e474f204e616d65206669656c642063616e6e6f7420626520656d7074792e2e2e4552433732313a20617070726f76616c20746f2063757272656e74206f776e65724576656e74204e616d65206669656c642063616e6e6f7420626520656d7074792e2e2e4552433732313a207472616e736665722063616c6c6572206973206e6f74206f776e6572206e6f7220617070726f766564a26469706673582212209bf632703f2ebf8e2f330c52f945de07a7e63cd3750c81c2b246438d4787bc9564736f6c63430006090033",
    "sourcePath": "c:/Users/hp/Desktop/Social Coupons/contracts/NGO.sol",
    "compiler": {
        "name": "solc",
        "version": "0.6.9+commit.3e3065ac"
    },
    "functionHashes": {
        "addEvents(string,string,uint256,uint256)": "3d608ff1",
        "approve(address,uint256)": "095ea7b3",
        "balanceOf(address)": "70a08231",
        "baseURI()": "6c0360eb",
        "eventCount()": "71be2e4a",
        "events(uint256)": "0b791430",
        "getApproved(uint256)": "081812fc",
        "isApprovedForAll(address,address)": "e985e9c5",
        "issueCoupon(address,string)": "59ed7b74",
        "name()": "06fdde03",
        "ngoCount()": "e022f634",
        "ngoList(uint256)": "967f8982",
        "ngoOwners(address)": "4fe1af77",
        "ownerOf(uint256)": "6352211e",
        "registerNGO(string,string,string)": "48f667b3",
        "retrieveEventDetails(uint256)": "8f7ce476",
        "retrieveNGODetails(uint256)": "3a9bed9d",
        "safeTransferFrom(address,address,uint256)": "42842e0e",
        "safeTransferFrom(address,address,uint256,bytes)": "b88d4fde",
        "setApprovalForAll(address,bool)": "a22cb465",
        "supportsInterface(bytes4)": "01ffc9a7",
        "symbol()": "95d89b41",
        "tokenByIndex(uint256)": "4f6ccce7",
        "tokenOfOwnerByIndex(address,uint256)": "2f745c59",
        "tokenURI(uint256)": "c87b56dd",
        "totalSupply()": "18160ddd",
        "transferFrom(address,address,uint256)": "23b872dd"
    },
    "gasEstimates": {
        "creation": {
            "codeDepositCost": "2512400",
            "executionCost": "infinite",
            "totalCost": "infinite"
        },
        "external": {
            "addEvents(string,string,uint256,uint256)": "infinite",
            "approve(address,uint256)": "infinite",
            "balanceOf(address)": "infinite",
            "baseURI()": "infinite",
            "eventCount()": "1087",
            "events(uint256)": "infinite",
            "getApproved(uint256)": "infinite",
            "isApprovedForAll(address,address)": "1372",
            "issueCoupon(address,string)": "infinite",
            "name()": "infinite",
            "ngoCount()": "1086",
            "ngoList(uint256)": "infinite",
            "ngoOwners(address)": "1182",
            "ownerOf(uint256)": "infinite",
            "registerNGO(string,string,string)": "infinite",
            "retrieveEventDetails(uint256)": "infinite",
            "retrieveNGODetails(uint256)": "infinite",
            "safeTransferFrom(address,address,uint256)": "infinite",
            "safeTransferFrom(address,address,uint256,bytes)": "infinite",
            "setApprovalForAll(address,bool)": "infinite",
            "supportsInterface(bytes4)": "1196",
            "symbol()": "infinite",
            "tokenByIndex(uint256)": "infinite",
            "tokenOfOwnerByIndex(address,uint256)": "infinite",
            "tokenURI(uint256)": "infinite",
            "totalSupply()": "1207",
            "transferFrom(address,address,uint256)": "infinite"
        }
    }
}