{
    "contractName": "Volunteer",
    "abi": [
        {
            "inputs": [],
            "stateMutability": "nonpayable",
            "type": "constructor"
        },
        {
            "anonymous": false,
            "inputs": [
                {
                    "indexed": true,
                    "internalType": "address",
                    "name": "owner",
                    "type": "address"
                },
                {
                    "indexed": true,
                    "internalType": "address",
                    "name": "approved",
                    "type": "address"
                },
                {
                    "indexed": true,
                    "internalType": "uint256",
                    "name": "tokenId",
                    "type": "uint256"
                }
            ],
            "name": "Approval",
            "type": "event"
        },
        {
            "anonymous": false,
            "inputs": [
                {
                    "indexed": true,
                    "internalType": "address",
                    "name": "owner",
                    "type": "address"
                },
                {
                    "indexed": true,
                    "internalType": "address",
                    "name": "operator",
                    "type": "address"
                },
                {
                    "indexed": false,
                    "internalType": "bool",
                    "name": "approved",
                    "type": "bool"
                }
            ],
            "name": "ApprovalForAll",
            "type": "event"
        },
        {
            "anonymous": false,
            "inputs": [
                {
                    "indexed": true,
                    "internalType": "address",
                    "name": "from",
                    "type": "address"
                },
                {
                    "indexed": true,
                    "internalType": "address",
                    "name": "to",
                    "type": "address"
                },
                {
                    "indexed": true,
                    "internalType": "uint256",
                    "name": "tokenId",
                    "type": "uint256"
                }
            ],
            "name": "Transfer",
            "type": "event"
        },
        {
            "anonymous": false,
            "inputs": [
                {
                    "indexed": false,
                    "internalType": "string",
                    "name": "volName",
                    "type": "string"
                },
                {
                    "indexed": false,
                    "internalType": "string",
                    "name": "location",
                    "type": "string"
                },
                {
                    "indexed": false,
                    "internalType": "address",
                    "name": "volAddress",
                    "type": "address"
                }
            ],
            "name": "VolunteerRegistered",
            "type": "event"
        },
        {
            "inputs": [
                {
                    "internalType": "address",
                    "name": "to",
                    "type": "address"
                },
                {
                    "internalType": "uint256",
                    "name": "tokenId",
                    "type": "uint256"
                }
            ],
            "name": "approve",
            "outputs": [],
            "stateMutability": "nonpayable",
            "type": "function"
        },
        {
            "inputs": [
                {
                    "internalType": "address",
                    "name": "owner",
                    "type": "address"
                }
            ],
            "name": "balanceOf",
            "outputs": [
                {
                    "internalType": "uint256",
                    "name": "",
                    "type": "uint256"
                }
            ],
            "stateMutability": "view",
            "type": "function"
        },
        {
            "inputs": [],
            "name": "baseURI",
            "outputs": [
                {
                    "internalType": "string",
                    "name": "",
                    "type": "string"
                }
            ],
            "stateMutability": "view",
            "type": "function"
        },
        {
            "inputs": [
                {
                    "internalType": "uint256",
                    "name": "tokenId",
                    "type": "uint256"
                }
            ],
            "name": "getApproved",
            "outputs": [
                {
                    "internalType": "address",
                    "name": "",
                    "type": "address"
                }
            ],
            "stateMutability": "view",
            "type": "function"
        },
        {
            "inputs": [
                {
                    "internalType": "address",
                    "name": "owner",
                    "type": "address"
                },
                {
                    "internalType": "address",
                    "name": "operator",
                    "type": "address"
                }
            ],
            "name": "isApprovedForAll",
            "outputs": [
                {
                    "internalType": "bool",
                    "name": "",
                    "type": "bool"
                }
            ],
            "stateMutability": "view",
            "type": "function"
        },
        {
            "inputs": [],
            "name": "name",
            "outputs": [
                {
                    "internalType": "string",
                    "name": "",
                    "type": "string"
                }
            ],
            "stateMutability": "view",
            "type": "function"
        },
        {
            "inputs": [
                {
                    "internalType": "uint256",
                    "name": "tokenId",
                    "type": "uint256"
                }
            ],
            "name": "ownerOf",
            "outputs": [
                {
                    "internalType": "address",
                    "name": "",
                    "type": "address"
                }
            ],
            "stateMutability": "view",
            "type": "function"
        },
        {
            "inputs": [
                {
                    "internalType": "address",
                    "name": "_cottage",
                    "type": "address"
                },
                {
                    "internalType": "uint256",
                    "name": "_tokenId",
                    "type": "uint256"
                }
            ],
            "name": "redeemCoupon",
            "outputs": [],
            "stateMutability": "nonpayable",
            "type": "function"
        },
        {
            "inputs": [
                {
                    "internalType": "string",
                    "name": "_volName",
                    "type": "string"
                },
                {
                    "internalType": "string",
                    "name": "_location",
                    "type": "string"
                }
            ],
            "name": "registerVolunteer",
            "outputs": [],
            "stateMutability": "nonpayable",
            "type": "function"
        },
        {
            "inputs": [
                {
                    "internalType": "address",
                    "name": "from",
                    "type": "address"
                },
                {
                    "internalType": "address",
                    "name": "to",
                    "type": "address"
                },
                {
                    "internalType": "uint256",
                    "name": "tokenId",
                    "type": "uint256"
                }
            ],
            "name": "safeTransferFrom",
            "outputs": [],
            "stateMutability": "nonpayable",
            "type": "function"
        },
        {
            "inputs": [
                {
                    "internalType": "address",
                    "name": "from",
                    "type": "address"
                },
                {
                    "internalType": "address",
                    "name": "to",
                    "type": "address"
                },
                {
                    "internalType": "uint256",
                    "name": "tokenId",
                    "type": "uint256"
                },
                {
                    "internalType": "bytes",
                    "name": "_data",
                    "type": "bytes"
                }
            ],
            "name": "safeTransferFrom",
            "outputs": [],
            "stateMutability": "nonpayable",
            "type": "function"
        },
        {
            "inputs": [
                {
                    "internalType": "address",
                    "name": "operator",
                    "type": "address"
                },
                {
                    "internalType": "bool",
                    "name": "approved",
                    "type": "bool"
                }
            ],
            "name": "setApprovalForAll",
            "outputs": [],
            "stateMutability": "nonpayable",
            "type": "function"
        },
        {
            "inputs": [
                {
                    "internalType": "bytes4",
                    "name": "interfaceId",
                    "type": "bytes4"
                }
            ],
            "name": "supportsInterface",
            "outputs": [
                {
                    "internalType": "bool",
                    "name": "",
                    "type": "bool"
                }
            ],
            "stateMutability": "view",
            "type": "function"
        },
        {
            "inputs": [],
            "name": "symbol",
            "outputs": [
                {
                    "internalType": "string",
                    "name": "",
                    "type": "string"
                }
            ],
            "stateMutability": "view",
            "type": "function"
        },
        {
            "inputs": [
                {
                    "internalType": "uint256",
                    "name": "index",
                    "type": "uint256"
                }
            ],
            "name": "tokenByIndex",
            "outputs": [
                {
                    "internalType": "uint256",
                    "name": "",
                    "type": "uint256"
                }
            ],
            "stateMutability": "view",
            "type": "function"
        },
        {
            "inputs": [
                {
                    "internalType": "address",
                    "name": "owner",
                    "type": "address"
                },
                {
                    "internalType": "uint256",
                    "name": "index",
                    "type": "uint256"
                }
            ],
            "name": "tokenOfOwnerByIndex",
            "outputs": [
                {
                    "internalType": "uint256",
                    "name": "",
                    "type": "uint256"
                }
            ],
            "stateMutability": "view",
            "type": "function"
        },
        {
            "inputs": [
                {
                    "internalType": "uint256",
                    "name": "tokenId",
                    "type": "uint256"
                }
            ],
            "name": "tokenURI",
            "outputs": [
                {
                    "internalType": "string",
                    "name": "",
                    "type": "string"
                }
            ],
            "stateMutability": "view",
            "type": "function"
        },
        {
            "inputs": [],
            "name": "totalSupply",
            "outputs": [
                {
                    "internalType": "uint256",
                    "name": "",
                    "type": "uint256"
                }
            ],
            "stateMutability": "view",
            "type": "function"
        },
        {
            "inputs": [
                {
                    "internalType": "address",
                    "name": "from",
                    "type": "address"
                },
                {
                    "internalType": "address",
                    "name": "to",
                    "type": "address"
                },
                {
                    "internalType": "uint256",
                    "name": "tokenId",
                    "type": "uint256"
                }
            ],
            "name": "transferFrom",
            "outputs": [],
            "stateMutability": "nonpayable",
            "type": "function"
        },
        {
            "inputs": [
                {
                    "internalType": "address",
                    "name": "",
                    "type": "address"
                }
            ],
            "name": "volunteers",
            "outputs": [
                {
                    "internalType": "string",
                    "name": "volName",
                    "type": "string"
                },
                {
                    "internalType": "string",
                    "name": "location",
                    "type": "string"
                },
                {
                    "internalType": "address",
                    "name": "volAddress",
                    "type": "address"
                }
            ],
            "stateMutability": "view",
            "type": "function"
        }
    ],
    "bytecode": "60806040523480156200001157600080fd5b50604080518082018252601081526f2b37b63ab73a32b2b91021b7bab837b760811b60208083019190915282518084019093526002835261534360f01b90830152906200006e6301ffc9a760e01b6001600160e01b03620000f316565b81516200008390600690602085019062000178565b5080516200009990600790602084019062000178565b50620000b56380ac58cd60e01b6001600160e01b03620000f316565b620000d0635b5e139f60e01b6001600160e01b03620000f316565b620000eb63780e9d6360e01b6001600160e01b03620000f316565b50506200021d565b6001600160e01b0319808216141562000153576040805162461bcd60e51b815260206004820152601c60248201527f4552433136353a20696e76616c696420696e7465726661636520696400000000604482015290519081900360640190fd5b6001600160e01b0319166000908152602081905260409020805460ff19166001179055565b828054600181600116156101000203166002900490600052602060002090601f016020900481019282601f10620001bb57805160ff1916838001178555620001eb565b82800160010185558215620001eb579182015b82811115620001eb578251825591602001919060010190620001ce565b50620001f9929150620001fd565b5090565b6200021a91905b80821115620001f9576000815560010162000204565b90565b6121d2806200022d6000396000f3fe608060405234801561001057600080fd5b506004361061012c5760003560e01c80636352211e116100ad578063b88d4fde11610071578063b88d4fde146103cc578063c87b56dd14610492578063d5e4f667146104af578063e6279898146105dc578063e985e9c5146106f95761012c565b80636352211e1461034b5780636c0360eb1461036857806370a082311461037057806395d89b4114610396578063a22cb4651461039e5761012c565b806323b872dd116100f457806323b872dd1461026a5780632f745c59146102a057806330635cd3146102cc57806342842e0e146102f85780634f6ccce71461032e5761012c565b806301ffc9a71461013157806306fdde031461016c578063081812fc146101e9578063095ea7b31461022257806318160ddd14610250575b600080fd5b6101586004803603602081101561014757600080fd5b50356001600160e01b031916610727565b604080519115158252519081900360200190f35b61017461074a565b6040805160208082528351818301528351919283929083019185019080838360005b838110156101ae578181015183820152602001610196565b50505050905090810190601f1680156101db5780820380516001836020036101000a031916815260200191505b509250505060405180910390f35b610206600480360360208110156101ff57600080fd5b50356107e1565b604080516001600160a01b039092168252519081900360200190f35b61024e6004803603604081101561023857600080fd5b506001600160a01b038135169060200135610843565b005b61025861091e565b60408051918252519081900360200190f35b61024e6004803603606081101561028057600080fd5b506001600160a01b0381358116916020810135909116906040013561092f565b610258600480360360408110156102b657600080fd5b506001600160a01b038135169060200135610986565b61024e600480360360408110156102e257600080fd5b506001600160a01b0381351690602001356109b7565b61024e6004803603606081101561030e57600080fd5b506001600160a01b03813581169160208101359091169060400135610a6f565b6102586004803603602081101561034457600080fd5b5035610a8a565b6102066004803603602081101561036157600080fd5b5035610aa6565b610174610ad4565b6102586004803603602081101561038657600080fd5b50356001600160a01b0316610b35565b610174610b9d565b61024e600480360360408110156103b457600080fd5b506001600160a01b0381351690602001351515610bfe565b61024e600480360360808110156103e257600080fd5b6001600160a01b0382358116926020810135909116916040820135919081019060808101606082013564010000000081111561041d57600080fd5b82018360208201111561042f57600080fd5b8035906020019184600183028401116401000000008311171561045157600080fd5b91908080601f016020809104026020016040519081016040528093929190818152602001838380828437600092019190915250929550610d03945050505050565b610174600480360360208110156104a857600080fd5b5035610d61565b61024e600480360360408110156104c557600080fd5b8101906020810181356401000000008111156104e057600080fd5b8201836020820111156104f257600080fd5b8035906020019184600183028401116401000000008311171561051457600080fd5b91908080601f016020809104026020016040519081016040528093929190818152602001838380828437600092019190915250929594936020810193503591505064010000000081111561056757600080fd5b82018360208201111561057957600080fd5b8035906020019184600183028401116401000000008311171561059b57600080fd5b91908080601f016020809104026020016040519081016040528093929190818152602001838380828437600092019190915250929550611008945050505050565b610602600480360360208110156105f257600080fd5b50356001600160a01b0316611214565b604051808060200180602001846001600160a01b03166001600160a01b03168152602001838103835286818151815260200191508051906020019080838360005b8381101561065b578181015183820152602001610643565b50505050905090810190601f1680156106885780820380516001836020036101000a031916815260200191505b50838103825285518152855160209182019187019080838360005b838110156106bb5781810151838201526020016106a3565b50505050905090810190601f1680156106e85780820380516001836020036101000a031916815260200191505b509550505050505060405180910390f35b6101586004803603604081101561070f57600080fd5b506001600160a01b0381358116916020013516611362565b6001600160e01b0319811660009081526020819052604090205460ff165b919050565b60068054604080516020601f60026000196101006001881615020190951694909404938401819004810282018101909252828152606093909290918301828280156107d65780601f106107ab576101008083540402835291602001916107d6565b820191906000526020600020905b8154815290600101906020018083116107b957829003601f168201915b505050505090505b90565b60006107ec82611390565b6108275760405162461bcd60e51b815260040180806020018281038252602c8152602001806120c7602c913960400191505060405180910390fd5b506000908152600460205260409020546001600160a01b031690565b600061084e82610aa6565b9050806001600160a01b0316836001600160a01b031614156108a15760405162461bcd60e51b815260040180806020018281038252602181526020018061214b6021913960400191505060405180910390fd5b806001600160a01b03166108b36113a3565b6001600160a01b031614806108d457506108d4816108cf6113a3565b611362565b61090f5760405162461bcd60e51b8152600401808060200182810382526038815260200180611ff36038913960400191505060405180910390fd5b61091983836113a7565b505050565b600061092a6002611415565b905090565b61094061093a6113a3565b82611420565b61097b5760405162461bcd60e51b815260040180806020018281038252603181526020018061216c6031913960400191505060405180910390fd5b6109198383836114c4565b6001600160a01b03821660009081526001602052604081206109ae908363ffffffff61162216565b90505b92915050565b336109c182610aa6565b6001600160a01b031614610a065760405162461bcd60e51b815260040180806020018281038252602781526020018061202b6027913960400191505060405180910390fd5b610a0f81611390565b610a60576040805162461bcd60e51b815260206004820152601860248201527f546f6b656e20496420646f6573206e6f74206578697374730000000000000000604482015290519081900360640190fd5b610a6b3383836114c4565b5050565b61091983838360405180602001604052806000815250610d03565b600080610a9e60028463ffffffff61162e16565b509392505050565b60006109b18260405180606001604052806029815260200161207c602991396002919063ffffffff61164a16565b60098054604080516020601f60026000196101006001881615020190951694909404938401819004810282018101909252828152606093909290918301828280156107d65780601f106107ab576101008083540402835291602001916107d6565b60006001600160a01b038216610b7c5760405162461bcd60e51b815260040180806020018281038252602a815260200180612052602a913960400191505060405180910390fd5b6001600160a01b03821660009081526001602052604090206109b190611415565b60078054604080516020601f60026000196101006001881615020190951694909404938401819004810282018101909252828152606093909290918301828280156107d65780601f106107ab576101008083540402835291602001916107d6565b610c066113a3565b6001600160a01b0316826001600160a01b03161415610c6c576040805162461bcd60e51b815260206004820152601960248201527f4552433732313a20617070726f766520746f2063616c6c657200000000000000604482015290519081900360640190fd5b8060056000610c796113a3565b6001600160a01b03908116825260208083019390935260409182016000908120918716808252919093529120805460ff191692151592909217909155610cbd6113a3565b60408051841515815290516001600160a01b0392909216917f17307eab39ab6107e8899845ad3d59bd9653f200f220920489ca2b5937696c319181900360200190a35050565b610d14610d0e6113a3565b83611420565b610d4f5760405162461bcd60e51b815260040180806020018281038252603181526020018061216c6031913960400191505060405180910390fd5b610d5b84848484611661565b50505050565b6060610d6c82611390565b610da75760405162461bcd60e51b815260040180806020018281038252602f81526020018061211c602f913960400191505060405180910390fd5b60008281526008602090815260409182902080548351601f6002600019610100600186161502019093169290920491820184900484028101840190945280845260609392830182828015610e3c5780601f10610e1157610100808354040283529160200191610e3c565b820191906000526020600020905b815481529060010190602001808311610e1f57829003601f168201915b505060095493945050505060026000196101006001841615020190911604610e65579050610745565b805115610f36576009816040516020018083805460018160011615610100020316600290048015610ecd5780601f10610eab576101008083540402835291820191610ecd565b820191906000526020600020905b815481529060010190602001808311610eb9575b5050825160208401908083835b60208310610ef95780518252601f199092019160209182019101610eda565b6001836020036101000a03801982511681845116808217855250505050505090500192505050604051602081830303815290604052915050610745565b6009610f41846116b3565b6040516020018083805460018160011615610100020316600290048015610f9f5780601f10610f7d576101008083540402835291820191610f9f565b820191906000526020600020905b815481529060010190602001808311610f8b575b5050825160208401908083835b60208310610fcb5780518252601f199092019160209182019101610fac565b6001836020036101000a03801982511681845116808217855250505050505090500192505050604051602081830303815290604052915050919050565b60008251116110485760405162461bcd60e51b8152600401808060200182810382526027815260200180611f4a6027913960400191505060405180910390fd5b60008151116110885760405162461bcd60e51b815260040180806020018281038252602b815260200180611f1f602b913960400191505060405180910390fd5b604080516060810182528381526020808201849052338284018190526000908152600a82529290922081518051929391926110c69284920190611e64565b5060208281015180516110df9260018501920190611e64565b5060409182015160029190910180546001600160a01b0319166001600160a01b03909216919091179055805133918101829052606080825284519082015283517f6382e4a1c2f2cdd413cdbf57e0bb1d4d48b37474cdc269fb7e6e530a510bf73392859285928190602080830191608084019188019080838360005b8381101561117357818101518382015260200161115b565b50505050905090810190601f1680156111a05780820380516001836020036101000a031916815260200191505b50838103825285518152855160209182019187019080838360005b838110156111d35781810151838201526020016111bb565b50505050905090810190601f1680156112005780820380516001836020036101000a031916815260200191505b509550505050505060405180910390a15050565b600a6020908152600091825260409182902080548351601f600260001961010060018616150201909316929092049182018490048402810184019094528084529092918391908301828280156112ab5780601f10611280576101008083540402835291602001916112ab565b820191906000526020600020905b81548152906001019060200180831161128e57829003601f168201915b505050505090806001018054600181600116156101000203166002900480601f0160208091040260200160405190810160405280929190818152602001828054600181600116156101000203166002900480156113495780601f1061131e57610100808354040283529160200191611349565b820191906000526020600020905b81548152906001019060200180831161132c57829003601f168201915b505050600290930154919250506001600160a01b031683565b6001600160a01b03918216600090815260056020908152604080832093909416825291909152205460ff1690565b60006109b160028363ffffffff61178e16565b3390565b600081815260046020526040902080546001600160a01b0319166001600160a01b03841690811790915581906113dc82610aa6565b6001600160a01b03167f8c5be1e5ebec7d5bd14f71427d1e84f3dd0314c0f7b2291e5b200ac8c7c3b92560405160405180910390a45050565b60006109b18261179a565b600061142b82611390565b6114665760405162461bcd60e51b815260040180806020018281038252602c815260200180611fc7602c913960400191505060405180910390fd5b600061147183610aa6565b9050806001600160a01b0316846001600160a01b031614806114ac5750836001600160a01b03166114a1846107e1565b6001600160a01b0316145b806114bc57506114bc8185611362565b949350505050565b826001600160a01b03166114d782610aa6565b6001600160a01b03161461151c5760405162461bcd60e51b81526004018080602001828103825260298152602001806120f36029913960400191505060405180910390fd5b6001600160a01b0382166115615760405162461bcd60e51b8152600401808060200182810382526024815260200180611fa36024913960400191505060405180910390fd5b61156c838383610919565b6115776000826113a7565b6001600160a01b038316600090815260016020526040902061159f908263ffffffff61179e16565b506001600160a01b03821660009081526001602052604090206115c8908263ffffffff6117aa16565b506115db6002828463ffffffff6117b616565b5080826001600160a01b0316846001600160a01b03167fddf252ad1be2c89b69c2b068fc378daa952ba7f163c4a11628f55a4df523b3ef60405160405180910390a4505050565b60006109ae83836117cc565b600080808061163d8686611830565b9097909650945050505050565b60006116578484846118ab565b90505b9392505050565b61166c8484846114c4565b61167884848484611975565b610d5b5760405162461bcd60e51b8152600401808060200182810382526032815260200180611f716032913960400191505060405180910390fd5b6060816116d857506040805180820190915260018152600360fc1b6020820152610745565b8160005b81156116f057600101600a820491506116dc565b60608167ffffffffffffffff8111801561170957600080fd5b506040519080825280601f01601f191660200182016040528015611734576020820181803683370190505b50859350905060001982015b831561178557600a840660300160f81b8282806001900393508151811061176357fe5b60200101906001600160f81b031916908160001a905350600a84049350611740565b50949350505050565b60006109ae8383611af5565b5490565b60006109ae8383611b0d565b60006109ae8383611bd3565b600061165784846001600160a01b038516611c1d565b8154600090821061180e5760405162461bcd60e51b8152600401808060200182810382526022815260200180611efd6022913960400191505060405180910390fd5b82600001828154811061181d57fe5b9060005260206000200154905092915050565b8154600090819083106118745760405162461bcd60e51b81526004018080602001828103825260228152602001806120a56022913960400191505060405180910390fd5b600084600001848154811061188557fe5b906000526020600020906002020190508060000154816001015492509250509250929050565b600082815260018401602052604081205482816119465760405162461bcd60e51b81526004018080602001828103825283818151815260200191508051906020019080838360005b8381101561190b5781810151838201526020016118f3565b50505050905090810190601f1680156119385780820380516001836020036101000a031916815260200191505b509250505060405180910390fd5b5084600001600182038154811061195957fe5b9060005260206000209060020201600101549150509392505050565b6000611989846001600160a01b0316611cb4565b611995575060016114bc565b6060611abb630a85bd0160e11b6119aa6113a3565b88878760405160240180856001600160a01b03166001600160a01b03168152602001846001600160a01b03166001600160a01b0316815260200183815260200180602001828103825283818151815260200191508051906020019080838360005b83811015611a23578181015183820152602001611a0b565b50505050905090810190601f168015611a505780820380516001836020036101000a031916815260200191505b5095505050505050604051602081830303815290604052906001600160e01b0319166020820180516001600160e01b038381831617835250505050604051806060016040528060328152602001611f71603291396001600160a01b038816919063ffffffff611ced16565b90506000818060200190516020811015611ad457600080fd5b50516001600160e01b031916630a85bd0160e11b1492505050949350505050565b60009081526001919091016020526040902054151590565b60008181526001830160205260408120548015611bc95783546000198083019190810190600090879083908110611b4057fe5b9060005260206000200154905080876000018481548110611b5d57fe5b600091825260208083209091019290925582815260018981019092526040902090840190558654879080611b8d57fe5b600190038181906000526020600020016000905590558660010160008781526020019081526020016000206000905560019450505050506109b1565b60009150506109b1565b6000611bdf8383611af5565b611c15575081546001818101845560008481526020808220909301849055845484825282860190935260409020919091556109b1565b5060006109b1565b600082815260018401602052604081205480611c8257505060408051808201825283815260208082018481528654600181810189556000898152848120955160029093029095019182559151908201558654868452818801909252929091205561165a565b82856000016001830381548110611c9557fe5b906000526020600020906002020160010181905550600091505061165a565b6000813f7fc5d2460186f7233c927e7db2dcc703c0e500b653ca82273b7bfad8045d85a4708181148015906114bc575050151592915050565b606061165784846000856060611d0285611cb4565b611d53576040805162461bcd60e51b815260206004820152601d60248201527f416464726573733a2063616c6c20746f206e6f6e2d636f6e7472616374000000604482015290519081900360640190fd5b60006060866001600160a01b031685876040518082805190602001908083835b60208310611d925780518252601f199092019160209182019101611d73565b6001836020036101000a03801982511681845116808217855250505050505090500191505060006040518083038185875af1925050503d8060008114611df4576040519150601f19603f3d011682016040523d82523d6000602084013e611df9565b606091505b50915091508115611e0d5791506114bc9050565b805115611e1d5780518082602001fd5b60405162461bcd60e51b815260206004820181815286516024840152865187939192839260440191908501908083836000831561190b5781810151838201526020016118f3565b828054600181600116156101000203166002900490600052602060002090601f016020900481019282601f10611ea557805160ff1916838001178555611ed2565b82800160010185558215611ed2579182015b82811115611ed2578251825591602001919060010190611eb7565b50611ede929150611ee2565b5090565b6107de91905b80821115611ede5760008155600101611ee856fe456e756d657261626c655365743a20696e646578206f7574206f6620626f756e6473566f6c756e74656572206c6f636174696f6e206669656c642063616e6e6f7420626520656d7074792e2e2e566f6c756e74656572204e616d65206669656c642063616e6e6f7420626520656d7074792e2e2e4552433732313a207472616e7366657220746f206e6f6e20455243373231526563656976657220696d706c656d656e7465724552433732313a207472616e7366657220746f20746865207a65726f20616464726573734552433732313a206f70657261746f7220717565727920666f72206e6f6e6578697374656e7420746f6b656e4552433732313a20617070726f76652063616c6c6572206973206e6f74206f776e6572206e6f7220617070726f76656420666f7220616c6c596f7520617265206e6f7420746865206f776e6572206f66207468697320636f75706f6e2e2e2e4552433732313a2062616c616e636520717565727920666f7220746865207a65726f20616464726573734552433732313a206f776e657220717565727920666f72206e6f6e6578697374656e7420746f6b656e456e756d657261626c654d61703a20696e646578206f7574206f6620626f756e64734552433732313a20617070726f76656420717565727920666f72206e6f6e6578697374656e7420746f6b656e4552433732313a207472616e73666572206f6620746f6b656e2074686174206973206e6f74206f776e4552433732314d657461646174613a2055524920717565727920666f72206e6f6e6578697374656e7420746f6b656e4552433732313a20617070726f76616c20746f2063757272656e74206f776e65724552433732313a207472616e736665722063616c6c6572206973206e6f74206f776e6572206e6f7220617070726f766564a2646970667358221220d20e6a9de0466be50b3cdc5ff206f92f7a871601f54f945508c503ed9f8eb61b64736f6c63430006090033",
    "sourcePath": "c:/Users/hp/Desktop/Social Coupons/contracts/Volunteer.sol",
    "compiler": {
        "name": "solc",
        "version": "0.6.9+commit.3e3065ac"
    },
    "functionHashes": {
        "approve(address,uint256)": "095ea7b3",
        "balanceOf(address)": "70a08231",
        "baseURI()": "6c0360eb",
        "getApproved(uint256)": "081812fc",
        "isApprovedForAll(address,address)": "e985e9c5",
        "name()": "06fdde03",
        "ownerOf(uint256)": "6352211e",
        "redeemCoupon(address,uint256)": "30635cd3",
        "registerVolunteer(string,string)": "d5e4f667",
        "safeTransferFrom(address,address,uint256)": "42842e0e",
        "safeTransferFrom(address,address,uint256,bytes)": "b88d4fde",
        "setApprovalForAll(address,bool)": "a22cb465",
        "supportsInterface(bytes4)": "01ffc9a7",
        "symbol()": "95d89b41",
        "tokenByIndex(uint256)": "4f6ccce7",
        "tokenOfOwnerByIndex(address,uint256)": "2f745c59",
        "tokenURI(uint256)": "c87b56dd",
        "totalSupply()": "18160ddd",
        "transferFrom(address,address,uint256)": "23b872dd",
        "volunteers(address)": "e6279898"
    },
    "gasEstimates": {
        "creation": {
            "codeDepositCost": "1731600",
            "executionCost": "infinite",
            "totalCost": "infinite"
        },
        "external": {
            "approve(address,uint256)": "infinite",
            "balanceOf(address)": "infinite",
            "baseURI()": "infinite",
            "getApproved(uint256)": "infinite",
            "isApprovedForAll(address,address)": "1372",
            "name()": "infinite",
            "ownerOf(uint256)": "infinite",
            "redeemCoupon(address,uint256)": "infinite",
            "registerVolunteer(string,string)": "infinite",
            "safeTransferFrom(address,address,uint256)": "infinite",
            "safeTransferFrom(address,address,uint256,bytes)": "infinite",
            "setApprovalForAll(address,bool)": "infinite",
            "supportsInterface(bytes4)": "1196",
            "symbol()": "infinite",
            "tokenByIndex(uint256)": "infinite",
            "tokenOfOwnerByIndex(address,uint256)": "infinite",
            "tokenURI(uint256)": "infinite",
            "totalSupply()": "1185",
            "transferFrom(address,address,uint256)": "infinite",
            "volunteers(address)": "infinite"
        }
    }
}