{
    "contractName": "VolunteerCoupon",
    "abi": [
        {
            "inputs": [],
            "stateMutability": "nonpayable",
            "type": "constructor"
        },
        {
            "anonymous": false,
            "inputs": [
                {
                    "indexed": true,
                    "internalType": "address",
                    "name": "owner",
                    "type": "address"
                },
                {
                    "indexed": true,
                    "internalType": "address",
                    "name": "approved",
                    "type": "address"
                },
                {
                    "indexed": true,
                    "internalType": "uint256",
                    "name": "tokenId",
                    "type": "uint256"
                }
            ],
            "name": "Approval",
            "type": "event"
        },
        {
            "anonymous": false,
            "inputs": [
                {
                    "indexed": true,
                    "internalType": "address",
                    "name": "owner",
                    "type": "address"
                },
                {
                    "indexed": true,
                    "internalType": "address",
                    "name": "operator",
                    "type": "address"
                },
                {
                    "indexed": false,
                    "internalType": "bool",
                    "name": "approved",
                    "type": "bool"
                }
            ],
            "name": "ApprovalForAll",
            "type": "event"
        },
        {
            "anonymous": false,
            "inputs": [
                {
                    "indexed": true,
                    "internalType": "address",
                    "name": "from",
                    "type": "address"
                },
                {
                    "indexed": true,
                    "internalType": "address",
                    "name": "to",
                    "type": "address"
                },
                {
                    "indexed": true,
                    "internalType": "uint256",
                    "name": "tokenId",
                    "type": "uint256"
                }
            ],
            "name": "Transfer",
            "type": "event"
        },
        {
            "inputs": [
                {
                    "internalType": "address",
                    "name": "to",
                    "type": "address"
                },
                {
                    "internalType": "uint256",
                    "name": "tokenId",
                    "type": "uint256"
                }
            ],
            "name": "approve",
            "outputs": [],
            "stateMutability": "nonpayable",
            "type": "function"
        },
        {
            "inputs": [
                {
                    "internalType": "address",
                    "name": "owner",
                    "type": "address"
                }
            ],
            "name": "balanceOf",
            "outputs": [
                {
                    "internalType": "uint256",
                    "name": "",
                    "type": "uint256"
                }
            ],
            "stateMutability": "view",
            "type": "function"
        },
        {
            "inputs": [],
            "name": "baseURI",
            "outputs": [
                {
                    "internalType": "string",
                    "name": "",
                    "type": "string"
                }
            ],
            "stateMutability": "view",
            "type": "function"
        },
        {
            "inputs": [
                {
                    "internalType": "uint256",
                    "name": "tokenId",
                    "type": "uint256"
                }
            ],
            "name": "getApproved",
            "outputs": [
                {
                    "internalType": "address",
                    "name": "",
                    "type": "address"
                }
            ],
            "stateMutability": "view",
            "type": "function"
        },
        {
            "inputs": [
                {
                    "internalType": "address",
                    "name": "owner",
                    "type": "address"
                },
                {
                    "internalType": "address",
                    "name": "operator",
                    "type": "address"
                }
            ],
            "name": "isApprovedForAll",
            "outputs": [
                {
                    "internalType": "bool",
                    "name": "",
                    "type": "bool"
                }
            ],
            "stateMutability": "view",
            "type": "function"
        },
        {
            "inputs": [
                {
                    "internalType": "address",
                    "name": "_receiver",
                    "type": "address"
                },
                {
                    "internalType": "string",
                    "name": "tokenURI",
                    "type": "string"
                }
            ],
            "name": "issueCoupon",
            "outputs": [
                {
                    "internalType": "uint256",
                    "name": "",
                    "type": "uint256"
                }
            ],
            "stateMutability": "nonpayable",
            "type": "function"
        },
        {
            "inputs": [],
            "name": "name",
            "outputs": [
                {
                    "internalType": "string",
                    "name": "",
                    "type": "string"
                }
            ],
            "stateMutability": "view",
            "type": "function"
        },
        {
            "inputs": [
                {
                    "internalType": "uint256",
                    "name": "tokenId",
                    "type": "uint256"
                }
            ],
            "name": "ownerOf",
            "outputs": [
                {
                    "internalType": "address",
                    "name": "",
                    "type": "address"
                }
            ],
            "stateMutability": "view",
            "type": "function"
        },
        {
            "inputs": [
                {
                    "internalType": "address",
                    "name": "from",
                    "type": "address"
                },
                {
                    "internalType": "address",
                    "name": "to",
                    "type": "address"
                },
                {
                    "internalType": "uint256",
                    "name": "tokenId",
                    "type": "uint256"
                }
            ],
            "name": "safeTransferFrom",
            "outputs": [],
            "stateMutability": "nonpayable",
            "type": "function"
        },
        {
            "inputs": [
                {
                    "internalType": "address",
                    "name": "from",
                    "type": "address"
                },
                {
                    "internalType": "address",
                    "name": "to",
                    "type": "address"
                },
                {
                    "internalType": "uint256",
                    "name": "tokenId",
                    "type": "uint256"
                },
                {
                    "internalType": "bytes",
                    "name": "_data",
                    "type": "bytes"
                }
            ],
            "name": "safeTransferFrom",
            "outputs": [],
            "stateMutability": "nonpayable",
            "type": "function"
        },
        {
            "inputs": [
                {
                    "internalType": "address",
                    "name": "operator",
                    "type": "address"
                },
                {
                    "internalType": "bool",
                    "name": "approved",
                    "type": "bool"
                }
            ],
            "name": "setApprovalForAll",
            "outputs": [],
            "stateMutability": "nonpayable",
            "type": "function"
        },
        {
            "inputs": [
                {
                    "internalType": "bytes4",
                    "name": "interfaceId",
                    "type": "bytes4"
                }
            ],
            "name": "supportsInterface",
            "outputs": [
                {
                    "internalType": "bool",
                    "name": "",
                    "type": "bool"
                }
            ],
            "stateMutability": "view",
            "type": "function"
        },
        {
            "inputs": [],
            "name": "symbol",
            "outputs": [
                {
                    "internalType": "string",
                    "name": "",
                    "type": "string"
                }
            ],
            "stateMutability": "view",
            "type": "function"
        },
        {
            "inputs": [
                {
                    "internalType": "uint256",
                    "name": "index",
                    "type": "uint256"
                }
            ],
            "name": "tokenByIndex",
            "outputs": [
                {
                    "internalType": "uint256",
                    "name": "",
                    "type": "uint256"
                }
            ],
            "stateMutability": "view",
            "type": "function"
        },
        {
            "inputs": [
                {
                    "internalType": "address",
                    "name": "owner",
                    "type": "address"
                },
                {
                    "internalType": "uint256",
                    "name": "index",
                    "type": "uint256"
                }
            ],
            "name": "tokenOfOwnerByIndex",
            "outputs": [
                {
                    "internalType": "uint256",
                    "name": "",
                    "type": "uint256"
                }
            ],
            "stateMutability": "view",
            "type": "function"
        },
        {
            "inputs": [
                {
                    "internalType": "uint256",
                    "name": "tokenId",
                    "type": "uint256"
                }
            ],
            "name": "tokenURI",
            "outputs": [
                {
                    "internalType": "string",
                    "name": "",
                    "type": "string"
                }
            ],
            "stateMutability": "view",
            "type": "function"
        },
        {
            "inputs": [],
            "name": "totalSupply",
            "outputs": [
                {
                    "internalType": "uint256",
                    "name": "",
                    "type": "uint256"
                }
            ],
            "stateMutability": "view",
            "type": "function"
        },
        {
            "inputs": [
                {
                    "internalType": "address",
                    "name": "from",
                    "type": "address"
                },
                {
                    "internalType": "address",
                    "name": "to",
                    "type": "address"
                },
                {
                    "internalType": "uint256",
                    "name": "tokenId",
                    "type": "uint256"
                }
            ],
            "name": "transferFrom",
            "outputs": [],
            "stateMutability": "nonpayable",
            "type": "function"
        }
    ],
    "bytecode": "60806040523480156200001157600080fd5b50604080518082018252601081526f2b37b63ab73a32b2b91021b7bab837b760811b60208083019190915282518084019093526002835261534360f01b90830152906200006e6301ffc9a760e01b6001600160e01b03620000f316565b81516200008390600690602085019062000178565b5080516200009990600790602084019062000178565b50620000b56380ac58cd60e01b6001600160e01b03620000f316565b620000d0635b5e139f60e01b6001600160e01b03620000f316565b620000eb63780e9d6360e01b6001600160e01b03620000f316565b50506200021d565b6001600160e01b0319808216141562000153576040805162461bcd60e51b815260206004820152601c60248201527f4552433136353a20696e76616c696420696e7465726661636520696400000000604482015290519081900360640190fd5b6001600160e01b0319166000908152602081905260409020805460ff19166001179055565b828054600181600116156101000203166002900490600052602060002090601f016020900481019282601f10620001bb57805160ff1916838001178555620001eb565b82800160010185558215620001eb579182015b82811115620001eb578251825591602001919060010190620001ce565b50620001f9929150620001fd565b5090565b6200021a91905b80821115620001f9576000815560010162000204565b90565b611d71806200022d6000396000f3fe608060405234801561001057600080fd5b50600436106101165760003560e01c806359ed7b74116100a257806395d89b411161007157806395d89b411461040a578063a22cb46514610412578063b88d4fde14610440578063c87b56dd14610506578063e985e9c51461052357610116565b806359ed7b74146103095780636352211e146103bf5780636c0360eb146103dc57806370a08231146103e457610116565b806318160ddd116100e957806318160ddd1461023a57806323b872dd146102545780632f745c591461028a57806342842e0e146102b65780634f6ccce7146102ec57610116565b806301ffc9a71461011b57806306fdde0314610156578063081812fc146101d3578063095ea7b31461020c575b600080fd5b6101426004803603602081101561013157600080fd5b50356001600160e01b031916610551565b604080519115158252519081900360200190f35b61015e610574565b6040805160208082528351818301528351919283929083019185019080838360005b83811015610198578181015183820152602001610180565b50505050905090810190601f1680156101c55780820380516001836020036101000a031916815260200191505b509250505060405180910390f35b6101f0600480360360208110156101e957600080fd5b503561060b565b604080516001600160a01b039092168252519081900360200190f35b6102386004803603604081101561022257600080fd5b506001600160a01b03813516906020013561066d565b005b610242610748565b60408051918252519081900360200190f35b6102386004803603606081101561026a57600080fd5b506001600160a01b03813581169160208101359091169060400135610759565b610242600480360360408110156102a057600080fd5b506001600160a01b0381351690602001356107b0565b610238600480360360608110156102cc57600080fd5b506001600160a01b038135811691602081013590911690604001356107e1565b6102426004803603602081101561030257600080fd5b50356107fc565b6102426004803603604081101561031f57600080fd5b6001600160a01b03823516919081019060408101602082013564010000000081111561034a57600080fd5b82018360208201111561035c57600080fd5b8035906020019184600183028401116401000000008311171561037e57600080fd5b91908080601f016020809104026020016040519081016040528093929190818152602001838380828437600092019190915250929550610818945050505050565b6101f0600480360360208110156103d557600080fd5b5035610846565b61015e610874565b610242600480360360208110156103fa57600080fd5b50356001600160a01b03166108d5565b61015e61093d565b6102386004803603604081101561042857600080fd5b506001600160a01b038135169060200135151561099e565b6102386004803603608081101561045657600080fd5b6001600160a01b0382358116926020810135909116916040820135919081019060808101606082013564010000000081111561049157600080fd5b8201836020820111156104a357600080fd5b803590602001918460018302840111640100000000831117156104c557600080fd5b91908080601f016020809104026020016040519081016040528093929190818152602001838380828437600092019190915250929550610aa3945050505050565b61015e6004803603602081101561051c57600080fd5b5035610b01565b6101426004803603604081101561053957600080fd5b506001600160a01b0381358116916020013516610da8565b6001600160e01b0319811660009081526020819052604090205460ff165b919050565b60068054604080516020601f60026000196101006001881615020190951694909404938401819004810282018101909252828152606093909290918301828280156106005780601f106105d557610100808354040283529160200191610600565b820191906000526020600020905b8154815290600101906020018083116105e357829003601f168201915b505050505090505b90565b600061061682610dd6565b6106515760405162461bcd60e51b815260040180806020018281038252602c815260200180611c3a602c913960400191505060405180910390fd5b506000908152600460205260409020546001600160a01b031690565b600061067882610846565b9050806001600160a01b0316836001600160a01b031614156106cb5760405162461bcd60e51b8152600401808060200182810382526021815260200180611cea6021913960400191505060405180910390fd5b806001600160a01b03166106dd610de9565b6001600160a01b031614806106fe57506106fe816106f9610de9565b610da8565b6107395760405162461bcd60e51b8152600401808060200182810382526038815260200180611b8d6038913960400191505060405180910390fd5b6107438383610ded565b505050565b60006107546002610e5b565b905090565b61076a610764610de9565b82610e66565b6107a55760405162461bcd60e51b8152600401808060200182810382526031815260200180611d0b6031913960400191505060405180910390fd5b610743838383610f0a565b6001600160a01b03821660009081526001602052604081206107d8908363ffffffff61106816565b90505b92915050565b61074383838360405180602001604052806000815250610aa3565b60008061081060028463ffffffff61107416565b509392505050565b6000610824600a611090565b6000610830600a611099565b905061083c848261109d565b6107d881846111d7565b60006107db82604051806060016040528060298152602001611bef602991396002919063ffffffff61123a16565b60098054604080516020601f60026000196101006001881615020190951694909404938401819004810282018101909252828152606093909290918301828280156106005780601f106105d557610100808354040283529160200191610600565b60006001600160a01b03821661091c5760405162461bcd60e51b815260040180806020018281038252602a815260200180611bc5602a913960400191505060405180910390fd5b6001600160a01b03821660009081526001602052604090206107db90610e5b565b60078054604080516020601f60026000196101006001881615020190951694909404938401819004810282018101909252828152606093909290918301828280156106005780601f106105d557610100808354040283529160200191610600565b6109a6610de9565b6001600160a01b0316826001600160a01b03161415610a0c576040805162461bcd60e51b815260206004820152601960248201527f4552433732313a20617070726f766520746f2063616c6c657200000000000000604482015290519081900360640190fd5b8060056000610a19610de9565b6001600160a01b03908116825260208083019390935260409182016000908120918716808252919093529120805460ff191692151592909217909155610a5d610de9565b60408051841515815290516001600160a01b0392909216917f17307eab39ab6107e8899845ad3d59bd9653f200f220920489ca2b5937696c319181900360200190a35050565b610ab4610aae610de9565b83610e66565b610aef5760405162461bcd60e51b8152600401808060200182810382526031815260200180611d0b6031913960400191505060405180910390fd5b610afb84848484611251565b50505050565b6060610b0c82610dd6565b610b475760405162461bcd60e51b815260040180806020018281038252602f815260200180611cbb602f913960400191505060405180910390fd5b60008281526008602090815260409182902080548351601f6002600019610100600186161502019093169290920491820184900484028101840190945280845260609392830182828015610bdc5780601f10610bb157610100808354040283529160200191610bdc565b820191906000526020600020905b815481529060010190602001808311610bbf57829003601f168201915b505060095493945050505060026000196101006001841615020190911604610c0557905061056f565b805115610cd6576009816040516020018083805460018160011615610100020316600290048015610c6d5780601f10610c4b576101008083540402835291820191610c6d565b820191906000526020600020905b815481529060010190602001808311610c59575b5050825160208401908083835b60208310610c995780518252601f199092019160209182019101610c7a565b6001836020036101000a0380198251168184511680821785525050505050509050019250505060405160208183030381529060405291505061056f565b6009610ce1846112a3565b6040516020018083805460018160011615610100020316600290048015610d3f5780601f10610d1d576101008083540402835291820191610d3f565b820191906000526020600020905b815481529060010190602001808311610d2b575b5050825160208401908083835b60208310610d6b5780518252601f199092019160209182019101610d4c565b6001836020036101000a03801982511681845116808217855250505050505090500192505050604051602081830303815290604052915050919050565b6001600160a01b03918216600090815260056020908152604080832093909416825291909152205460ff1690565b60006107db60028363ffffffff61137e16565b3390565b600081815260046020526040902080546001600160a01b0319166001600160a01b0384169081179091558190610e2282610846565b6001600160a01b03167f8c5be1e5ebec7d5bd14f71427d1e84f3dd0314c0f7b2291e5b200ac8c7c3b92560405160405180910390a45050565b60006107db82611099565b6000610e7182610dd6565b610eac5760405162461bcd60e51b815260040180806020018281038252602c815260200180611b61602c913960400191505060405180910390fd5b6000610eb783610846565b9050806001600160a01b0316846001600160a01b03161480610ef25750836001600160a01b0316610ee78461060b565b6001600160a01b0316145b80610f025750610f028185610da8565b949350505050565b826001600160a01b0316610f1d82610846565b6001600160a01b031614610f625760405162461bcd60e51b8152600401808060200182810382526029815260200180611c926029913960400191505060405180910390fd5b6001600160a01b038216610fa75760405162461bcd60e51b8152600401808060200182810382526024815260200180611b3d6024913960400191505060405180910390fd5b610fb2838383610743565b610fbd600082610ded565b6001600160a01b0383166000908152600160205260409020610fe5908263ffffffff61138a16565b506001600160a01b038216600090815260016020526040902061100e908263ffffffff61139616565b506110216002828463ffffffff6113a216565b5080826001600160a01b0316846001600160a01b03167fddf252ad1be2c89b69c2b068fc378daa952ba7f163c4a11628f55a4df523b3ef60405160405180910390a4505050565b60006107d883836113b8565b6000808080611083868661141c565b9097909650945050505050565b80546001019055565b5490565b6001600160a01b0382166110f8576040805162461bcd60e51b815260206004820181905260248201527f4552433732313a206d696e7420746f20746865207a65726f2061646472657373604482015290519081900360640190fd5b61110181610dd6565b15611153576040805162461bcd60e51b815260206004820152601c60248201527f4552433732313a20746f6b656e20616c7265616479206d696e74656400000000604482015290519081900360640190fd5b61115f60008383610743565b6001600160a01b0382166000908152600160205260409020611187908263ffffffff61139616565b5061119a6002828463ffffffff6113a216565b5060405181906001600160a01b038416906000907fddf252ad1be2c89b69c2b068fc378daa952ba7f163c4a11628f55a4df523b3ef908290a45050565b6111e082610dd6565b61121b5760405162461bcd60e51b815260040180806020018281038252602c815260200180611c66602c913960400191505060405180910390fd5b6000828152600860209081526040909120825161074392840190611a50565b6000611247848484611497565b90505b9392505050565b61125c848484610f0a565b61126884848484611561565b610afb5760405162461bcd60e51b8152600401808060200182810382526032815260200180611b0b6032913960400191505060405180910390fd5b6060816112c857506040805180820190915260018152600360fc1b602082015261056f565b8160005b81156112e057600101600a820491506112cc565b60608167ffffffffffffffff811180156112f957600080fd5b506040519080825280601f01601f191660200182016040528015611324576020820181803683370190505b50859350905060001982015b831561137557600a840660300160f81b8282806001900393508151811061135357fe5b60200101906001600160f81b031916908160001a905350600a84049350611330565b50949350505050565b60006107d883836116e1565b60006107d883836116f9565b60006107d883836117bf565b600061124784846001600160a01b038516611809565b815460009082106113fa5760405162461bcd60e51b8152600401808060200182810382526022815260200180611ae96022913960400191505060405180910390fd5b82600001828154811061140957fe5b9060005260206000200154905092915050565b8154600090819083106114605760405162461bcd60e51b8152600401808060200182810382526022815260200180611c186022913960400191505060405180910390fd5b600084600001848154811061147157fe5b906000526020600020906002020190508060000154816001015492509250509250929050565b600082815260018401602052604081205482816115325760405162461bcd60e51b81526004018080602001828103825283818151815260200191508051906020019080838360005b838110156114f75781810151838201526020016114df565b50505050905090810190601f1680156115245780820380516001836020036101000a031916815260200191505b509250505060405180910390fd5b5084600001600182038154811061154557fe5b9060005260206000209060020201600101549150509392505050565b6000611575846001600160a01b03166118a0565b61158157506001610f02565b60606116a7630a85bd0160e11b611596610de9565b88878760405160240180856001600160a01b03166001600160a01b03168152602001846001600160a01b03166001600160a01b0316815260200183815260200180602001828103825283818151815260200191508051906020019080838360005b8381101561160f5781810151838201526020016115f7565b50505050905090810190601f16801561163c5780820380516001836020036101000a031916815260200191505b5095505050505050604051602081830303815290604052906001600160e01b0319166020820180516001600160e01b038381831617835250505050604051806060016040528060328152602001611b0b603291396001600160a01b038816919063ffffffff6118d916565b905060008180602001905160208110156116c057600080fd5b50516001600160e01b031916630a85bd0160e11b1492505050949350505050565b60009081526001919091016020526040902054151590565b600081815260018301602052604081205480156117b5578354600019808301919081019060009087908390811061172c57fe5b906000526020600020015490508087600001848154811061174957fe5b60009182526020808320909101929092558281526001898101909252604090209084019055865487908061177957fe5b600190038181906000526020600020016000905590558660010160008781526020019081526020016000206000905560019450505050506107db565b60009150506107db565b60006117cb83836116e1565b611801575081546001818101845560008481526020808220909301849055845484825282860190935260409020919091556107db565b5060006107db565b60008281526001840160205260408120548061186e57505060408051808201825283815260208082018481528654600181810189556000898152848120955160029093029095019182559151908201558654868452818801909252929091205561124a565b8285600001600183038154811061188157fe5b906000526020600020906002020160010181905550600091505061124a565b6000813f7fc5d2460186f7233c927e7db2dcc703c0e500b653ca82273b7bfad8045d85a470818114801590610f02575050151592915050565b6060611247848460008560606118ee856118a0565b61193f576040805162461bcd60e51b815260206004820152601d60248201527f416464726573733a2063616c6c20746f206e6f6e2d636f6e7472616374000000604482015290519081900360640190fd5b60006060866001600160a01b031685876040518082805190602001908083835b6020831061197e5780518252601f19909201916020918201910161195f565b6001836020036101000a03801982511681845116808217855250505050505090500191505060006040518083038185875af1925050503d80600081146119e0576040519150601f19603f3d011682016040523d82523d6000602084013e6119e5565b606091505b509150915081156119f9579150610f029050565b805115611a095780518082602001fd5b60405162461bcd60e51b81526020600482018181528651602484015286518793919283926044019190850190808383600083156114f75781810151838201526020016114df565b828054600181600116156101000203166002900490600052602060002090601f016020900481019282601f10611a9157805160ff1916838001178555611abe565b82800160010185558215611abe579182015b82811115611abe578251825591602001919060010190611aa3565b50611aca929150611ace565b5090565b61060891905b80821115611aca5760008155600101611ad456fe456e756d657261626c655365743a20696e646578206f7574206f6620626f756e64734552433732313a207472616e7366657220746f206e6f6e20455243373231526563656976657220696d706c656d656e7465724552433732313a207472616e7366657220746f20746865207a65726f20616464726573734552433732313a206f70657261746f7220717565727920666f72206e6f6e6578697374656e7420746f6b656e4552433732313a20617070726f76652063616c6c6572206973206e6f74206f776e6572206e6f7220617070726f76656420666f7220616c6c4552433732313a2062616c616e636520717565727920666f7220746865207a65726f20616464726573734552433732313a206f776e657220717565727920666f72206e6f6e6578697374656e7420746f6b656e456e756d657261626c654d61703a20696e646578206f7574206f6620626f756e64734552433732313a20617070726f76656420717565727920666f72206e6f6e6578697374656e7420746f6b656e4552433732314d657461646174613a2055524920736574206f66206e6f6e6578697374656e7420746f6b656e4552433732313a207472616e73666572206f6620746f6b656e2074686174206973206e6f74206f776e4552433732314d657461646174613a2055524920717565727920666f72206e6f6e6578697374656e7420746f6b656e4552433732313a20617070726f76616c20746f2063757272656e74206f776e65724552433732313a207472616e736665722063616c6c6572206973206e6f74206f776e6572206e6f7220617070726f766564a26469706673582212208a19b0e077d69ecb9e3eee85c98cf4a2221f8c50958fa88827db9cb37921c3bf64736f6c63430006090033",
    "sourcePath": "c:/Users/hp/Desktop/Social Coupons/contracts/VolunteerCoupon.sol",
    "compiler": {
        "name": "solc",
        "version": "0.6.9+commit.3e3065ac"
    },
    "functionHashes": {
        "approve(address,uint256)": "095ea7b3",
        "balanceOf(address)": "70a08231",
        "baseURI()": "6c0360eb",
        "getApproved(uint256)": "081812fc",
        "isApprovedForAll(address,address)": "e985e9c5",
        "issueCoupon(address,string)": "59ed7b74",
        "name()": "06fdde03",
        "ownerOf(uint256)": "6352211e",
        "safeTransferFrom(address,address,uint256)": "42842e0e",
        "safeTransferFrom(address,address,uint256,bytes)": "b88d4fde",
        "setApprovalForAll(address,bool)": "a22cb465",
        "supportsInterface(bytes4)": "01ffc9a7",
        "symbol()": "95d89b41",
        "tokenByIndex(uint256)": "4f6ccce7",
        "tokenOfOwnerByIndex(address,uint256)": "2f745c59",
        "tokenURI(uint256)": "c87b56dd",
        "totalSupply()": "18160ddd",
        "transferFrom(address,address,uint256)": "23b872dd"
    },
    "gasEstimates": {
        "creation": {
            "codeDepositCost": "1507400",
            "executionCost": "infinite",
            "totalCost": "infinite"
        },
        "external": {
            "approve(address,uint256)": "infinite",
            "balanceOf(address)": "infinite",
            "baseURI()": "infinite",
            "getApproved(uint256)": "infinite",
            "isApprovedForAll(address,address)": "1372",
            "issueCoupon(address,string)": "infinite",
            "name()": "infinite",
            "ownerOf(uint256)": "infinite",
            "safeTransferFrom(address,address,uint256)": "infinite",
            "safeTransferFrom(address,address,uint256,bytes)": "infinite",
            "setApprovalForAll(address,bool)": "infinite",
            "supportsInterface(bytes4)": "1196",
            "symbol()": "infinite",
            "tokenByIndex(uint256)": "infinite",
            "tokenOfOwnerByIndex(address,uint256)": "infinite",
            "tokenURI(uint256)": "infinite",
            "totalSupply()": "1096",
            "transferFrom(address,address,uint256)": "infinite"
        }
    }
}